{
  "_format": "hh-sol-artifact-1",
  "contractName": "CustomLiquidityToken",
  "sourceName": "contracts/MyToken.sol",
  "abi": [
    {
      "inputs": [],
      "stateMutability": "nonpayable",
      "type": "constructor"
    },
    {
      "inputs": [],
      "name": "ECDSAInvalidSignature",
      "type": "error"
    },
    {
      "inputs": [
        {
          "internalType": "uint256",
          "name": "length",
          "type": "uint256"
        }
      ],
      "name": "ECDSAInvalidSignatureLength",
      "type": "error"
    },
    {
      "inputs": [
        {
          "internalType": "bytes32",
          "name": "s",
          "type": "bytes32"
        }
      ],
      "name": "ECDSAInvalidSignatureS",
      "type": "error"
    },
    {
      "inputs": [
        {
          "internalType": "address",
          "name": "spender",
          "type": "address"
        },
        {
          "internalType": "uint256",
          "name": "allowance",
          "type": "uint256"
        },
        {
          "internalType": "uint256",
          "name": "needed",
          "type": "uint256"
        }
      ],
      "name": "ERC20InsufficientAllowance",
      "type": "error"
    },
    {
      "inputs": [
        {
          "internalType": "address",
          "name": "sender",
          "type": "address"
        },
        {
          "internalType": "uint256",
          "name": "balance",
          "type": "uint256"
        },
        {
          "internalType": "uint256",
          "name": "needed",
          "type": "uint256"
        }
      ],
      "name": "ERC20InsufficientBalance",
      "type": "error"
    },
    {
      "inputs": [
        {
          "internalType": "address",
          "name": "approver",
          "type": "address"
        }
      ],
      "name": "ERC20InvalidApprover",
      "type": "error"
    },
    {
      "inputs": [
        {
          "internalType": "address",
          "name": "receiver",
          "type": "address"
        }
      ],
      "name": "ERC20InvalidReceiver",
      "type": "error"
    },
    {
      "inputs": [
        {
          "internalType": "address",
          "name": "sender",
          "type": "address"
        }
      ],
      "name": "ERC20InvalidSender",
      "type": "error"
    },
    {
      "inputs": [
        {
          "internalType": "address",
          "name": "spender",
          "type": "address"
        }
      ],
      "name": "ERC20InvalidSpender",
      "type": "error"
    },
    {
      "inputs": [
        {
          "internalType": "uint256",
          "name": "deadline",
          "type": "uint256"
        }
      ],
      "name": "ERC2612ExpiredSignature",
      "type": "error"
    },
    {
      "inputs": [
        {
          "internalType": "address",
          "name": "signer",
          "type": "address"
        },
        {
          "internalType": "address",
          "name": "owner",
          "type": "address"
        }
      ],
      "name": "ERC2612InvalidSigner",
      "type": "error"
    },
    {
      "inputs": [
        {
          "internalType": "address",
          "name": "account",
          "type": "address"
        },
        {
          "internalType": "uint256",
          "name": "currentNonce",
          "type": "uint256"
        }
      ],
      "name": "InvalidAccountNonce",
      "type": "error"
    },
    {
      "inputs": [],
      "name": "InvalidInitialization",
      "type": "error"
    },
    {
      "inputs": [],
      "name": "NotInitializing",
      "type": "error"
    },
    {
      "inputs": [
        {
          "internalType": "address",
          "name": "owner",
          "type": "address"
        }
      ],
      "name": "OwnableInvalidOwner",
      "type": "error"
    },
    {
      "inputs": [
        {
          "internalType": "address",
          "name": "account",
          "type": "address"
        }
      ],
      "name": "OwnableUnauthorizedAccount",
      "type": "error"
    },
    {
      "anonymous": false,
      "inputs": [
        {
          "indexed": true,
          "internalType": "address",
          "name": "owner",
          "type": "address"
        },
        {
          "indexed": true,
          "internalType": "address",
          "name": "spender",
          "type": "address"
        },
        {
          "indexed": false,
          "internalType": "uint256",
          "name": "value",
          "type": "uint256"
        }
      ],
      "name": "Approval",
      "type": "event"
    },
    {
      "anonymous": false,
      "inputs": [],
      "name": "EIP712DomainChanged",
      "type": "event"
    },
    {
      "anonymous": false,
      "inputs": [
        {
          "indexed": false,
          "internalType": "uint64",
          "name": "version",
          "type": "uint64"
        }
      ],
      "name": "Initialized",
      "type": "event"
    },
    {
      "anonymous": false,
      "inputs": [
        {
          "indexed": true,
          "internalType": "address",
          "name": "previousOwner",
          "type": "address"
        },
        {
          "indexed": true,
          "internalType": "address",
          "name": "newOwner",
          "type": "address"
        }
      ],
      "name": "OwnershipTransferred",
      "type": "event"
    },
    {
      "anonymous": false,
      "inputs": [
        {
          "indexed": true,
          "internalType": "address",
          "name": "from",
          "type": "address"
        },
        {
          "indexed": true,
          "internalType": "address",
          "name": "to",
          "type": "address"
        },
        {
          "indexed": false,
          "internalType": "uint256",
          "name": "value",
          "type": "uint256"
        }
      ],
      "name": "Transfer",
      "type": "event"
    },
    {
      "anonymous": false,
      "inputs": [
        {
          "indexed": false,
          "internalType": "address",
          "name": "account",
          "type": "address"
        },
        {
          "indexed": false,
          "internalType": "uint256",
          "name": "amount",
          "type": "uint256"
        }
      ],
      "name": "Withdraw",
      "type": "event"
    },
    {
      "inputs": [],
      "name": "DOMAIN_SEPARATOR",
      "outputs": [
        {
          "internalType": "bytes32",
          "name": "",
          "type": "bytes32"
        }
      ],
      "stateMutability": "view",
      "type": "function"
    },
    {
      "inputs": [
        {
          "internalType": "uint256",
          "name": "tokenAmount",
          "type": "uint256"
        }
      ],
      "name": "addLiquidity",
      "outputs": [],
      "stateMutability": "payable",
      "type": "function"
    },
    {
      "inputs": [
        {
          "internalType": "address",
          "name": "owner",
          "type": "address"
        },
        {
          "internalType": "address",
          "name": "spender",
          "type": "address"
        }
      ],
      "name": "allowance",
      "outputs": [
        {
          "internalType": "uint256",
          "name": "",
          "type": "uint256"
        }
      ],
      "stateMutability": "view",
      "type": "function"
    },
    {
      "inputs": [
        {
          "internalType": "address",
          "name": "spender",
          "type": "address"
        },
        {
          "internalType": "uint256",
          "name": "value",
          "type": "uint256"
        }
      ],
      "name": "approve",
      "outputs": [
        {
          "internalType": "bool",
          "name": "",
          "type": "bool"
        }
      ],
      "stateMutability": "nonpayable",
      "type": "function"
    },
    {
      "inputs": [
        {
          "internalType": "address",
          "name": "account",
          "type": "address"
        }
      ],
      "name": "balanceOf",
      "outputs": [
        {
          "internalType": "uint256",
          "name": "",
          "type": "uint256"
        }
      ],
      "stateMutability": "view",
      "type": "function"
    },
    {
      "inputs": [
        {
          "internalType": "uint256",
          "name": "value",
          "type": "uint256"
        }
      ],
      "name": "burn",
      "outputs": [],
      "stateMutability": "nonpayable",
      "type": "function"
    },
    {
      "inputs": [
        {
          "internalType": "address",
          "name": "account",
          "type": "address"
        },
        {
          "internalType": "uint256",
          "name": "value",
          "type": "uint256"
        }
      ],
      "name": "burnFrom",
      "outputs": [],
      "stateMutability": "nonpayable",
      "type": "function"
    },
    {
      "inputs": [],
      "name": "claimVestedTokens",
      "outputs": [],
      "stateMutability": "nonpayable",
      "type": "function"
    },
    {
      "inputs": [],
      "name": "decimals",
      "outputs": [
        {
          "internalType": "uint8",
          "name": "",
          "type": "uint8"
        }
      ],
      "stateMutability": "view",
      "type": "function"
    },
    {
      "inputs": [],
      "name": "eip712Domain",
      "outputs": [
        {
          "internalType": "bytes1",
          "name": "fields",
          "type": "bytes1"
        },
        {
          "internalType": "string",
          "name": "name",
          "type": "string"
        },
        {
          "internalType": "string",
          "name": "version",
          "type": "string"
        },
        {
          "internalType": "uint256",
          "name": "chainId",
          "type": "uint256"
        },
        {
          "internalType": "address",
          "name": "verifyingContract",
          "type": "address"
        },
        {
          "internalType": "bytes32",
          "name": "salt",
          "type": "bytes32"
        },
        {
          "internalType": "uint256[]",
          "name": "extensions",
          "type": "uint256[]"
        }
      ],
      "stateMutability": "view",
      "type": "function"
    },
    {
      "inputs": [
        {
          "internalType": "address",
          "name": "initialOwner",
          "type": "address"
        },
        {
          "internalType": "uint256",
          "name": "_totalSupply",
          "type": "uint256"
        },
        {
          "internalType": "string",
          "name": "name",
          "type": "string"
        },
        {
          "internalType": "string",
          "name": "symbol",
          "type": "string"
        },
        {
          "internalType": "uint256",
          "name": "decimals",
          "type": "uint256"
        },
        {
          "internalType": "address",
          "name": "_teamAddress",
          "type": "address"
        },
        {
          "internalType": "uint256[]",
          "name": "ratio",
          "type": "uint256[]"
        }
      ],
      "name": "init",
      "outputs": [],
      "stateMutability": "nonpayable",
      "type": "function"
    },
    {
      "inputs": [],
      "name": "liqudityAllocation",
      "outputs": [
        {
          "internalType": "uint256",
          "name": "",
          "type": "uint256"
        }
      ],
      "stateMutability": "view",
      "type": "function"
    },
    {
      "inputs": [],
      "name": "name",
      "outputs": [
        {
          "internalType": "string",
          "name": "",
          "type": "string"
        }
      ],
      "stateMutability": "view",
      "type": "function"
    },
    {
      "inputs": [
        {
          "internalType": "address",
          "name": "owner",
          "type": "address"
        }
      ],
      "name": "nonces",
      "outputs": [
        {
          "internalType": "uint256",
          "name": "",
          "type": "uint256"
        }
      ],
      "stateMutability": "view",
      "type": "function"
    },
    {
      "inputs": [],
      "name": "owner",
      "outputs": [
        {
          "internalType": "address",
          "name": "",
          "type": "address"
        }
      ],
      "stateMutability": "view",
      "type": "function"
    },
    {
      "inputs": [
        {
          "internalType": "address",
          "name": "owner",
          "type": "address"
        },
        {
          "internalType": "address",
          "name": "spender",
          "type": "address"
        },
        {
          "internalType": "uint256",
          "name": "value",
          "type": "uint256"
        },
        {
          "internalType": "uint256",
          "name": "deadline",
          "type": "uint256"
        },
        {
          "internalType": "uint8",
          "name": "v",
          "type": "uint8"
        },
        {
          "internalType": "bytes32",
          "name": "r",
          "type": "bytes32"
        },
        {
          "internalType": "bytes32",
          "name": "s",
          "type": "bytes32"
        }
      ],
      "name": "permit",
      "outputs": [],
      "stateMutability": "nonpayable",
      "type": "function"
    },
    {
      "inputs": [
        {
          "internalType": "uint256",
          "name": "liquidity",
          "type": "uint256"
        }
      ],
      "name": "removeLiquidity",
      "outputs": [],
      "stateMutability": "nonpayable",
      "type": "function"
    },
    {
      "inputs": [
        {
          "internalType": "uint256",
          "name": "liquidity",
          "type": "uint256"
        }
      ],
      "name": "removeLiquidityAndBurnLP",
      "outputs": [],
      "stateMutability": "nonpayable",
      "type": "function"
    },
    {
      "inputs": [],
      "name": "renounceOwnership",
      "outputs": [],
      "stateMutability": "nonpayable",
      "type": "function"
    },
    {
      "inputs": [],
      "name": "symbol",
      "outputs": [
        {
          "internalType": "string",
          "name": "",
          "type": "string"
        }
      ],
      "stateMutability": "view",
      "type": "function"
    },
    {
      "inputs": [],
      "name": "teamAddress",
      "outputs": [
        {
          "internalType": "address",
          "name": "",
          "type": "address"
        }
      ],
      "stateMutability": "view",
      "type": "function"
    },
    {
      "inputs": [],
      "name": "teamAllocation",
      "outputs": [
        {
          "internalType": "uint256",
          "name": "",
          "type": "uint256"
        }
      ],
      "stateMutability": "view",
      "type": "function"
    },
    {
      "inputs": [],
      "name": "totalSupply",
      "outputs": [
        {
          "internalType": "uint256",
          "name": "",
          "type": "uint256"
        }
      ],
      "stateMutability": "view",
      "type": "function"
    },
    {
      "inputs": [],
      "name": "tradeBurnRatio",
      "outputs": [
        {
          "internalType": "uint256",
          "name": "",
          "type": "uint256"
        }
      ],
      "stateMutability": "view",
      "type": "function"
    },
    {
      "inputs": [],
      "name": "tradeFeeRatio",
      "outputs": [
        {
          "internalType": "uint256",
          "name": "",
          "type": "uint256"
        }
      ],
      "stateMutability": "view",
      "type": "function"
    },
    {
      "inputs": [
        {
          "internalType": "address",
          "name": "to",
          "type": "address"
        },
        {
          "internalType": "uint256",
          "name": "value",
          "type": "uint256"
        }
      ],
      "name": "transfer",
      "outputs": [
        {
          "internalType": "bool",
          "name": "",
          "type": "bool"
        }
      ],
      "stateMutability": "nonpayable",
      "type": "function"
    },
    {
      "inputs": [
        {
          "internalType": "address",
          "name": "from",
          "type": "address"
        },
        {
          "internalType": "address",
          "name": "to",
          "type": "address"
        },
        {
          "internalType": "uint256",
          "name": "value",
          "type": "uint256"
        }
      ],
      "name": "transferFrom",
      "outputs": [
        {
          "internalType": "bool",
          "name": "",
          "type": "bool"
        }
      ],
      "stateMutability": "nonpayable",
      "type": "function"
    },
    {
      "inputs": [
        {
          "internalType": "address",
          "name": "newOwner",
          "type": "address"
        }
      ],
      "name": "transferOwnership",
      "outputs": [],
      "stateMutability": "nonpayable",
      "type": "function"
    },
    {
      "inputs": [],
      "name": "uniswapRouter",
      "outputs": [
        {
          "internalType": "contract IUniswapV2Router02",
          "name": "",
          "type": "address"
        }
      ],
      "stateMutability": "view",
      "type": "function"
    },
    {
      "inputs": [],
      "name": "uniswapV2Pair",
      "outputs": [
        {
          "internalType": "contract IUniswapV2Pair",
          "name": "",
          "type": "address"
        }
      ],
      "stateMutability": "view",
      "type": "function"
    },
    {
      "inputs": [
        {
          "internalType": "uint256",
          "name": "_ratio",
          "type": "uint256"
        }
      ],
      "name": "updateBurnRatio",
      "outputs": [],
      "stateMutability": "nonpayable",
      "type": "function"
    },
    {
      "inputs": [
        {
          "internalType": "uint256",
          "name": "_fee",
          "type": "uint256"
        }
      ],
      "name": "updateFee",
      "outputs": [],
      "stateMutability": "nonpayable",
      "type": "function"
    },
    {
      "inputs": [
        {
          "internalType": "address",
          "name": "",
          "type": "address"
        }
      ],
      "name": "vestingSchedules",
      "outputs": [
        {
          "internalType": "uint256",
          "name": "totalAmount",
          "type": "uint256"
        },
        {
          "internalType": "uint256",
          "name": "amountClaimed",
          "type": "uint256"
        },
        {
          "internalType": "uint256",
          "name": "vestingStart",
          "type": "uint256"
        },
        {
          "internalType": "uint256",
          "name": "vestingDuration",
          "type": "uint256"
        },
        {
          "internalType": "uint256",
          "name": "lastClaimed",
          "type": "uint256"
        },
        {
          "internalType": "bool",
          "name": "isActive",
          "type": "bool"
        }
      ],
      "stateMutability": "view",
      "type": "function"
    },
    {
      "inputs": [],
      "name": "withdraw",
      "outputs": [],
      "stateMutability": "nonpayable",
      "type": "function"
    }
  ],
  "bytecode": "0x608060405234801561001057600080fd5b5061001f61002460201b60201c565b61018e565b600061003461012860201b60201c565b90508060000160089054906101000a900460ff161561007f576040517ff92ee8a900000000000000000000000000000000000000000000000000000000815260040160405180910390fd5b67ffffffffffffffff80168160000160009054906101000a900467ffffffffffffffff1667ffffffffffffffff16146101255767ffffffffffffffff8160000160006101000a81548167ffffffffffffffff021916908367ffffffffffffffff1602179055507fc7f505b2f371ae2175ee4913f4499e1f2633a7b5936321eed1cdaeb6115181d267ffffffffffffffff60405161011c9190610173565b60405180910390a15b50565b60007ff0c57e16840df040f15088dc2f81fe391c3923bec73e23a9662efc9c229c6a00905090565b600067ffffffffffffffff82169050919050565b61016d81610150565b82525050565b60006020820190506101886000830184610164565b92915050565b614bf58061019d6000396000f3fe6080604052600436106101f95760003560e01c80637ecebe001161010d578063a9059cbb116100a0578063e59850f71161006f578063e59850f71461070a578063e74f3fbb14610735578063e95ee3371461074c578063f2fde38b14610775578063fdb20ccb1461079e576101f9565b8063a9059cbb1461063e578063ad3611cd1461067b578063d505accf146106a4578063dd62ed3e146106cd576101f9565b80638da5cb5b116100dc5780638da5cb5b146105965780639012c4a8146105c157806395d89b41146105ea5780639c8f9f2314610615576101f9565b80637ecebe00146104d257806384b0196e1461050f578063870c66d6146105405780638d3dee1c1461056b576101f9565b80633ccfd60b116101905780636816521a1161015f5780636816521a146103ff57806370a082311461042a578063715018a614610467578063735de9f71461047e57806379cc6790146104a9576101f9565b80633ccfd60b1461037857806342966c681461038f57806349bd5a5e146103b857806351c6590a146103e3576101f9565b80631c75f085116101cc5780631c75f085146102ba57806323b872dd146102e5578063313ce567146103225780633644e5151461034d576101f9565b8063058fe99f146101fe57806306fdde0314610227578063095ea7b31461025257806318160ddd1461028f575b600080fd5b34801561020a57600080fd5b506102256004803603810190610220919061364c565b6107e0565b005b34801561023357600080fd5b5061023c610d01565b60405161024991906137c1565b60405180910390f35b34801561025e57600080fd5b50610279600480360381019061027491906137e3565b610da2565b604051610286919061383e565b60405180910390f35b34801561029b57600080fd5b506102a4610dc5565b6040516102b19190613868565b60405180910390f35b3480156102c657600080fd5b506102cf610ddd565b6040516102dc9190613892565b60405180910390f35b3480156102f157600080fd5b5061030c600480360381019061030791906138ad565b610e03565b604051610319919061383e565b60405180910390f35b34801561032e57600080fd5b50610337610e32565b604051610344919061391c565b60405180910390f35b34801561035957600080fd5b50610362610e3b565b60405161036f9190613950565b60405180910390f35b34801561038457600080fd5b5061038d610e4a565b005b34801561039b57600080fd5b506103b660048036038101906103b1919061396b565b610ee0565b005b3480156103c457600080fd5b506103cd610ef4565b6040516103da91906139f7565b60405180910390f35b6103fd60048036038101906103f8919061396b565b610f1a565b005b34801561040b57600080fd5b5061041461131f565b6040516104219190613868565b60405180910390f35b34801561043657600080fd5b50610451600480360381019061044c9190613a12565b611325565b60405161045e9190613868565b60405180910390f35b34801561047357600080fd5b5061047c61137c565b005b34801561048a57600080fd5b50610493611390565b6040516104a09190613a60565b60405180910390f35b3480156104b557600080fd5b506104d060048036038101906104cb91906137e3565b6113b6565b005b3480156104de57600080fd5b506104f960048036038101906104f49190613a12565b6113d6565b6040516105069190613868565b60405180910390f35b34801561051b57600080fd5b506105246113e8565b6040516105379796959493929190613b74565b60405180910390f35b34801561054c57600080fd5b506105556114fa565b6040516105629190613868565b60405180910390f35b34801561057757600080fd5b50610580611500565b60405161058d9190613868565b60405180910390f35b3480156105a257600080fd5b506105ab611506565b6040516105b89190613892565b60405180910390f35b3480156105cd57600080fd5b506105e860048036038101906105e3919061396b565b61153e565b005b3480156105f657600080fd5b506105ff6115a2565b60405161060c91906137c1565b60405180910390f35b34801561062157600080fd5b5061063c6004803603810190610637919061396b565b611643565b005b34801561064a57600080fd5b50610665600480360381019061066091906137e3565b6116fd565b604051610672919061383e565b60405180910390f35b34801561068757600080fd5b506106a2600480360381019061069d919061396b565b6117b0565b005b3480156106b057600080fd5b506106cb60048036038101906106c69190613c50565b611814565b005b3480156106d957600080fd5b506106f460048036038101906106ef9190613cf2565b61195c565b6040516107019190613868565b60405180910390f35b34801561071657600080fd5b5061071f6119f1565b60405161072c9190613868565b60405180910390f35b34801561074157600080fd5b5061074a6119f7565b005b34801561075857600080fd5b50610773600480360381019061076e919061396b565b611bd5565b005b34801561078157600080fd5b5061079c60048036038101906107979190613a12565b6120bb565b005b3480156107aa57600080fd5b506107c560048036038101906107c09190613a12565b612141565b6040516107d796959493929190613d32565b60405180910390f35b60006107ea61218a565b905060008160000160089054906101000a900460ff1615905060008260000160009054906101000a900467ffffffffffffffff1690506000808267ffffffffffffffff161480156108385750825b9050600060018367ffffffffffffffff1614801561086d575060003073ffffffffffffffffffffffffffffffffffffffff163b145b90508115801561087b575080155b156108b2576040517ff92ee8a900000000000000000000000000000000000000000000000000000000815260040160405180910390fd5b60018560000160006101000a81548167ffffffffffffffff021916908367ffffffffffffffff16021790555083156109025760018560000160086101000a81548160ff0219169083151502179055505b61090c8a8a6121b2565b6109146121c8565b61091d8a6121d2565b6109268c61221c565b6109ab8c60648a600a6109399190613ef5565b8960048151811061094d5761094c613f40565b5b60200260200101518a60028151811061096957610968613f40565b5b6020026020010151606461097d9190613f6f565b6109879190613f6f565b8f6109929190613fa3565b61099c9190613fa3565b6109a69190614014565b612230565b73c532a74256d3db42d0bf7a0400fefdbad7694008600260006101000a81548173ffffffffffffffffffffffffffffffffffffffff021916908373ffffffffffffffffffffffffffffffffffffffff16021790555086600460006101000a81548173ffffffffffffffffffffffffffffffffffffffff021916908373ffffffffffffffffffffffffffffffffffffffff160217905550606488600a610a509190613ef5565b87600281518110610a6457610a63613f40565b5b60200260200101518d610a779190613fa3565b610a819190613fa3565b610a8b9190614014565b600081905550606488600a610aa09190613ef5565b87600481518110610ab457610ab3613f40565b5b60200260200101518d610ac79190613fa3565b610ad19190613fa3565b610adb9190614014565b600181905550610aed30600054612230565b610af930600154612230565b610b43600460009054906101000a900473ffffffffffffffffffffffffffffffffffffffff1660005488600381518110610b3657610b35613f40565b5b60200260200101516122b2565b600086600081518110610b5957610b58613f40565b5b602002602001015110158015610b8c575061138886600081518110610b8157610b80613f40565b5b602002602001015111155b610bcb576040517f08c379a0000000000000000000000000000000000000000000000000000000008152600401610bc290614091565b60405180910390fd5b600086600181518110610be157610be0613f40565b5b602002602001015110158015610c14575061138886600181518110610c0957610c08613f40565b5b602002602001015111155b610c53576040517f08c379a0000000000000000000000000000000000000000000000000000000008152600401610c4a906140fd565b60405180910390fd5b85600081518110610c6757610c66613f40565b5b602002602001015160058190555085600181518110610c8957610c88613f40565b5b60200260200101516006819055508315610cf35760008560000160086101000a81548160ff0219169083151502179055507fc7f505b2f371ae2175ee4913f4499e1f2633a7b5936321eed1cdaeb6115181d26001604051610cea919061416c565b60405180910390a15b505050505050505050505050565b60606000610d0d61238b565b9050806003018054610d1e906141b6565b80601f0160208091040260200160405190810160405280929190818152602001828054610d4a906141b6565b8015610d975780601f10610d6c57610100808354040283529160200191610d97565b820191906000526020600020905b815481529060010190602001808311610d7a57829003601f168201915b505050505091505090565b600080610dad6123b3565b9050610dba8185856123bb565b600191505092915050565b600080610dd061238b565b9050806002015491505090565b600460009054906101000a900473ffffffffffffffffffffffffffffffffffffffff1681565b600080610e0e6123b3565b9050610e1b8582856123cd565b610e26858585612461565b60019150509392505050565b60006012905090565b6000610e45612555565b905090565b610e52612564565b600047905060003390508073ffffffffffffffffffffffffffffffffffffffff166108fc839081150290604051600060405180830381858888f19350505050158015610ea2573d6000803e3d6000fd5b507f884edad9ce6fa2440d8a54cc123490eb96d2768479d49ff9c7366125a94243643383604051610ed49291906141e7565b60405180910390a15050565b610ef1610eeb6123b3565b826125eb565b50565b600360009054906101000a900473ffffffffffffffffffffffffffffffffffffffff1681565b6000600260009054906101000a900473ffffffffffffffffffffffffffffffffffffffff1673ffffffffffffffffffffffffffffffffffffffff1663c45a01556040518163ffffffff1660e01b8152600401602060405180830381865afa158015610f89573d6000803e3d6000fd5b505050506040513d601f19601f82011682018060405250810190610fad9190614225565b73ffffffffffffffffffffffffffffffffffffffff1663c9c6539630600260009054906101000a900473ffffffffffffffffffffffffffffffffffffffff1673ffffffffffffffffffffffffffffffffffffffff1663ad5c46486040518163ffffffff1660e01b8152600401602060405180830381865afa158015611036573d6000803e3d6000fd5b505050506040513d601f19601f8201168201806040525081019061105a9190614225565b6040518363ffffffff1660e01b8152600401611077929190614252565b6020604051808303816000875af1158015611096573d6000803e3d6000fd5b505050506040513d601f19601f820116820180604052508101906110ba9190614225565b905080600360006101000a81548173ffffffffffffffffffffffffffffffffffffffff021916908373ffffffffffffffffffffffffffffffffffffffff16021790555061114a30600360009054906101000a900473ffffffffffffffffffffffffffffffffffffffff167fffffffffffffffffffffffffffffffffffffffffffffffffffffffffffffffff6123bb565b600360009054906101000a900473ffffffffffffffffffffffffffffffffffffffff1673ffffffffffffffffffffffffffffffffffffffff1663095ea7b3600260009054906101000a900473ffffffffffffffffffffffffffffffffffffffff167fffffffffffffffffffffffffffffffffffffffffffffffffffffffffffffffff6040518363ffffffff1660e01b81526004016111e99291906141e7565b6020604051808303816000875af1158015611208573d6000803e3d6000fd5b505050506040513d601f19601f8201168201806040525081019061122c91906142a7565b5061125a30600260009054906101000a900473ffffffffffffffffffffffffffffffffffffffff16846123bb565b600260009054906101000a900473ffffffffffffffffffffffffffffffffffffffff1673ffffffffffffffffffffffffffffffffffffffff1663f305d7193430856000806112a6611506565b61012c426112b491906142d4565b6040518863ffffffff1660e01b81526004016112d596959493929190614343565b60606040518083038185885af11580156112f3573d6000803e3d6000fd5b50505050506040513d601f19601f8201168201806040525081019061131891906143b9565b5050505050565b60005481565b60008061133061238b565b90508060000160008473ffffffffffffffffffffffffffffffffffffffff1673ffffffffffffffffffffffffffffffffffffffff16815260200190815260200160002054915050919050565b611384612564565b61138e600061266d565b565b600260009054906101000a900473ffffffffffffffffffffffffffffffffffffffff1681565b6113c8826113c26123b3565b836123cd565b6113d282826125eb565b5050565b60006113e182612744565b9050919050565b60006060806000806000606060006113fe61279b565b90506000801b816000015414801561141c57506000801b8160010154145b61145b576040517f08c379a000000000000000000000000000000000000000000000000000000000815260040161145290614458565b60405180910390fd5b6114636127c3565b61146b612864565b46306000801b600067ffffffffffffffff81111561148c5761148b613459565b5b6040519080825280602002602001820160405280156114ba5781602001602082028036833780820191505090505b507f0f0000000000000000000000000000000000000000000000000000000000000095949392919097509750975097509750975097505090919293949596565b60065481565b60015481565b600080611511612905565b90508060000160009054906101000a900473ffffffffffffffffffffffffffffffffffffffff1691505090565b611546612564565b6000811015801561155957506113888111155b611598576040517f08c379a000000000000000000000000000000000000000000000000000000000815260040161158f906140fd565b60405180910390fd5b8060068190555050565b606060006115ae61238b565b90508060040180546115bf906141b6565b80601f01602080910402602001604051908101604052809291908181526020018280546115eb906141b6565b80156116385780601f1061160d57610100808354040283529160200191611638565b820191906000526020600020905b81548152906001019060200180831161161b57829003601f168201915b505050505091505090565b600260009054906101000a900473ffffffffffffffffffffffffffffffffffffffff1673ffffffffffffffffffffffffffffffffffffffff166302751cec30836000803361012c4261169591906142d4565b6040518763ffffffff1660e01b81526004016116b696959493929190614343565b60408051808303816000875af11580156116d4573d6000803e3d6000fd5b505050506040513d601f19601f820116820180604052508101906116f89190614478565b505050565b6000806117086123b3565b90506000806000600554111561174057612710600554866117299190613fa3565b6117339190614014565b915061173f83836125eb565b5b6000600654111561177c576127106006548661175c9190613fa3565b6117669190614014565b905061177a33611774611506565b83610e03565b505b600081838761178b9190613f6f565b6117959190613f6f565b90506117a2848883612461565b600194505050505092915050565b6117b8612564565b600081101580156117cb57506113888111155b61180a576040517f08c379a000000000000000000000000000000000000000000000000000000000815260040161180190614091565b60405180910390fd5b8060068190555050565b8342111561185957836040517f627913020000000000000000000000000000000000000000000000000000000081526004016118509190613868565b60405180910390fd5b60007f6e71edae12b1b97f4d1f60370fef10105fa2faae0126114a169c64845d6126c98888886118888c61292d565b8960405160200161189e969594939291906144b8565b60405160208183030381529060405280519060200120905060006118c182612992565b905060006118d1828787876129ac565b90508973ffffffffffffffffffffffffffffffffffffffff168173ffffffffffffffffffffffffffffffffffffffff161461194557808a6040517f4b800e4600000000000000000000000000000000000000000000000000000000815260040161193c929190614252565b60405180910390fd5b6119508a8a8a6123bb565b50505050505050505050565b60008061196761238b565b90508060010160008573ffffffffffffffffffffffffffffffffffffffff1673ffffffffffffffffffffffffffffffffffffffff16815260200190815260200160002060008473ffffffffffffffffffffffffffffffffffffffff1673ffffffffffffffffffffffffffffffffffffffff1681526020019081526020016000205491505092915050565b60055481565b6000600760003373ffffffffffffffffffffffffffffffffffffffff1673ffffffffffffffffffffffffffffffffffffffff16815260200190815260200160002090508060050160009054906101000a900460ff16611a8b576040517f08c379a0000000000000000000000000000000000000000000000000000000008152600401611a829061458b565b60405180910390fd5b80600201544211611ad1576040517f08c379a0000000000000000000000000000000000000000000000000000000008152600401611ac8906145f7565b60405180910390fd5b6000816004015442611ae39190613f6f565b905060008260030154828460000154611afc9190613fa3565b611b069190614014565b905060008111611b4b576040517f08c379a0000000000000000000000000000000000000000000000000000000008152600401611b4290614689565b60405180910390fd5b8260000154818460010154611b6091906142d4565b1115611ba1576040517f08c379a0000000000000000000000000000000000000000000000000000000008152600401611b98906146f5565b60405180910390fd5b80836001016000828254611bb591906142d4565b92505081905550428360040181905550611bd0303383612461565b505050565b600360009054906101000a900473ffffffffffffffffffffffffffffffffffffffff1673ffffffffffffffffffffffffffffffffffffffff166323b872dd3330846040518463ffffffff1660e01b8152600401611c3493929190614715565b6020604051808303816000875af1158015611c53573d6000803e3d6000fd5b505050506040513d601f19601f82011682018060405250810190611c7791906142a7565b50600360009054906101000a900473ffffffffffffffffffffffffffffffffffffffff1673ffffffffffffffffffffffffffffffffffffffff1663095ea7b3600260009054906101000a900473ffffffffffffffffffffffffffffffffffffffff16836040518363ffffffff1660e01b8152600401611cf79291906141e7565b6020604051808303816000875af1158015611d16573d6000803e3d6000fd5b505050506040513d601f19601f82011682018060405250810190611d3a91906142a7565b50600080600260009054906101000a900473ffffffffffffffffffffffffffffffffffffffff1673ffffffffffffffffffffffffffffffffffffffff1663baa2abde30600260009054906101000a900473ffffffffffffffffffffffffffffffffffffffff1673ffffffffffffffffffffffffffffffffffffffff1663ad5c46486040518163ffffffff1660e01b8152600401602060405180830381865afa158015611dea573d6000803e3d6000fd5b505050506040513d601f19601f82011682018060405250810190611e0e9190614225565b866000803061012c42611e2191906142d4565b6040518863ffffffff1660e01b8152600401611e43979695949392919061474c565b60408051808303816000875af1158015611e61573d6000803e3d6000fd5b505050506040513d601f19601f82011682018060405250810190611e859190614478565b91509150600360009054906101000a900473ffffffffffffffffffffffffffffffffffffffff1673ffffffffffffffffffffffffffffffffffffffff166389afcb44306040518263ffffffff1660e01b8152600401611ee49190613892565b60408051808303816000875af1158015611f02573d6000803e3d6000fd5b505050506040513d601f19601f82011682018060405250810190611f269190614478565b50503073ffffffffffffffffffffffffffffffffffffffff1663a9059cbb33846040518363ffffffff1660e01b8152600401611f639291906141e7565b6020604051808303816000875af1158015611f82573d6000803e3d6000fd5b505050506040513d601f19601f82011682018060405250810190611fa691906142a7565b50600260009054906101000a900473ffffffffffffffffffffffffffffffffffffffff1673ffffffffffffffffffffffffffffffffffffffff1663ad5c46486040518163ffffffff1660e01b8152600401602060405180830381865afa158015612014573d6000803e3d6000fd5b505050506040513d601f19601f820116820180604052508101906120389190614225565b73ffffffffffffffffffffffffffffffffffffffff1663a9059cbb33836040518363ffffffff1660e01b81526004016120729291906141e7565b6020604051808303816000875af1158015612091573d6000803e3d6000fd5b505050506040513d601f19601f820116820180604052508101906120b591906142a7565b50505050565b6120c3612564565b600073ffffffffffffffffffffffffffffffffffffffff168173ffffffffffffffffffffffffffffffffffffffff16036121355760006040517f1e4fbdf700000000000000000000000000000000000000000000000000000000815260040161212c9190613892565b60405180910390fd5b61213e8161266d565b50565b60076020528060005260406000206000915090508060000154908060010154908060020154908060030154908060040154908060050160009054906101000a900460ff16905086565b60007ff0c57e16840df040f15088dc2f81fe391c3923bec73e23a9662efc9c229c6a00905090565b6121ba6129dc565b6121c48282612a1c565b5050565b6121d06129dc565b565b6121da6129dc565b612219816040518060400160405280600181526020017f3100000000000000000000000000000000000000000000000000000000000000815250612a59565b50565b6122246129dc565b61222d81612aae565b50565b600073ffffffffffffffffffffffffffffffffffffffff168273ffffffffffffffffffffffffffffffffffffffff16036122a25760006040517fec442f050000000000000000000000000000000000000000000000000000000081526004016122999190613892565b60405180910390fd5b6122ae60008383612b34565b5050565b6000548211156122f7576040517f08c379a00000000000000000000000000000000000000000000000000000000081526004016122ee9061482d565b60405180910390fd5b6000600760008573ffffffffffffffffffffffffffffffffffffffff1673ffffffffffffffffffffffffffffffffffffffff16815260200190815260200160002090508281600001819055504281600201819055508181600301819055506000816001018190555042816004018190555060018160050160006101000a81548160ff02191690831515021790555050505050565b60007f52c63247e1f47db19d5ce0460030c497f067ca4cebf71ba98eeadabe20bace00905090565b600033905090565b6123c88383836001612d73565b505050565b60006123d9848461195c565b90507fffffffffffffffffffffffffffffffffffffffffffffffffffffffffffffffff811461245b578181101561244b578281836040517ffb8f41b20000000000000000000000000000000000000000000000000000000081526004016124429392919061484d565b60405180910390fd5b61245a84848484036000612d73565b5b50505050565b600073ffffffffffffffffffffffffffffffffffffffff168373ffffffffffffffffffffffffffffffffffffffff16036124d35760006040517f96c6fd1e0000000000000000000000000000000000000000000000000000000081526004016124ca9190613892565b60405180910390fd5b600073ffffffffffffffffffffffffffffffffffffffff168273ffffffffffffffffffffffffffffffffffffffff16036125455760006040517fec442f0500000000000000000000000000000000000000000000000000000000815260040161253c9190613892565b60405180910390fd5b612550838383612b34565b505050565b600061255f612f59565b905090565b61256c6123b3565b73ffffffffffffffffffffffffffffffffffffffff1661258a611506565b73ffffffffffffffffffffffffffffffffffffffff16146125e9576125ad6123b3565b6040517f118cdaa70000000000000000000000000000000000000000000000000000000081526004016125e09190613892565b60405180910390fd5b565b600073ffffffffffffffffffffffffffffffffffffffff168273ffffffffffffffffffffffffffffffffffffffff160361265d5760006040517f96c6fd1e0000000000000000000000000000000000000000000000000000000081526004016126549190613892565b60405180910390fd5b61266982600083612b34565b5050565b6000612677612905565b905060008160000160009054906101000a900473ffffffffffffffffffffffffffffffffffffffff169050828260000160006101000a81548173ffffffffffffffffffffffffffffffffffffffff021916908373ffffffffffffffffffffffffffffffffffffffff1602179055508273ffffffffffffffffffffffffffffffffffffffff168173ffffffffffffffffffffffffffffffffffffffff167f8be0079c531659141344cd1fd0a4f28419497f9722a3daafe3b4186f6b6457e060405160405180910390a3505050565b60008061274f612fbd565b90508060000160008473ffffffffffffffffffffffffffffffffffffffff1673ffffffffffffffffffffffffffffffffffffffff16815260200190815260200160002054915050919050565b60007fa16a46d94261c7517cc8ff89f61c0ce93598e3c849801011dee649a6a557d100905090565b606060006127cf61279b565b90508060020180546127e0906141b6565b80601f016020809104026020016040519081016040528092919081815260200182805461280c906141b6565b80156128595780601f1061282e57610100808354040283529160200191612859565b820191906000526020600020905b81548152906001019060200180831161283c57829003601f168201915b505050505091505090565b6060600061287061279b565b9050806003018054612881906141b6565b80601f01602080910402602001604051908101604052809291908181526020018280546128ad906141b6565b80156128fa5780601f106128cf576101008083540402835291602001916128fa565b820191906000526020600020905b8154815290600101906020018083116128dd57829003601f168201915b505050505091505090565b60007f9016d09d72d40fdae2fd8ceac6b6234c7706214fd39c1cd1e609a0528c199300905090565b600080612938612fbd565b90508060000160008473ffffffffffffffffffffffffffffffffffffffff1673ffffffffffffffffffffffffffffffffffffffff168152602001908152602001600020600081548092919060010191905055915050919050565b60006129a561299f612555565b83612fe5565b9050919050565b6000806000806129be88888888613026565b9250925092506129ce828261311a565b829350505050949350505050565b6129e461327e565b612a1a576040517fd7e6bcf800000000000000000000000000000000000000000000000000000000815260040160405180910390fd5b565b612a246129dc565b6000612a2e61238b565b905082816003019081612a419190614a26565b5081816004019081612a539190614a26565b50505050565b612a616129dc565b6000612a6b61279b565b905082816002019081612a7e9190614a26565b5081816003019081612a909190614a26565b506000801b81600001819055506000801b8160010181905550505050565b612ab66129dc565b600073ffffffffffffffffffffffffffffffffffffffff168173ffffffffffffffffffffffffffffffffffffffff1603612b285760006040517f1e4fbdf7000000000000000000000000000000000000000000000000000000008152600401612b1f9190613892565b60405180910390fd5b612b318161266d565b50565b6000612b3e61238b565b9050600073ffffffffffffffffffffffffffffffffffffffff168473ffffffffffffffffffffffffffffffffffffffff1603612b945781816002016000828254612b8891906142d4565b92505081905550612c6d565b60008160000160008673ffffffffffffffffffffffffffffffffffffffff1673ffffffffffffffffffffffffffffffffffffffff16815260200190815260200160002054905082811015612c23578481846040517fe450d38c000000000000000000000000000000000000000000000000000000008152600401612c1a9392919061484d565b60405180910390fd5b8281038260000160008773ffffffffffffffffffffffffffffffffffffffff1673ffffffffffffffffffffffffffffffffffffffff16815260200190815260200160002081905550505b600073ffffffffffffffffffffffffffffffffffffffff168373ffffffffffffffffffffffffffffffffffffffff1603612cb857818160020160008282540392505081905550612d08565b818160000160008573ffffffffffffffffffffffffffffffffffffffff1673ffffffffffffffffffffffffffffffffffffffff168152602001908152602001600020600082825401925050819055505b8273ffffffffffffffffffffffffffffffffffffffff168473ffffffffffffffffffffffffffffffffffffffff167fddf252ad1be2c89b69c2b068fc378daa952ba7f163c4a11628f55a4df523b3ef84604051612d659190613868565b60405180910390a350505050565b6000612d7d61238b565b9050600073ffffffffffffffffffffffffffffffffffffffff168573ffffffffffffffffffffffffffffffffffffffff1603612df15760006040517fe602df05000000000000000000000000000000000000000000000000000000008152600401612de89190613892565b60405180910390fd5b600073ffffffffffffffffffffffffffffffffffffffff168473ffffffffffffffffffffffffffffffffffffffff1603612e635760006040517f94280d62000000000000000000000000000000000000000000000000000000008152600401612e5a9190613892565b60405180910390fd5b828160010160008773ffffffffffffffffffffffffffffffffffffffff1673ffffffffffffffffffffffffffffffffffffffff16815260200190815260200160002060008673ffffffffffffffffffffffffffffffffffffffff1673ffffffffffffffffffffffffffffffffffffffff168152602001908152602001600020819055508115612f52578373ffffffffffffffffffffffffffffffffffffffff168573ffffffffffffffffffffffffffffffffffffffff167f8c5be1e5ebec7d5bd14f71427d1e84f3dd0314c0f7b2291e5b200ac8c7c3b92585604051612f499190613868565b60405180910390a35b5050505050565b60007f8b73c3c69bb8fe3d512ecc4cf759cc79239f7b179b0ffacaa9a75d522b39400f612f8461329e565b612f8c61331a565b4630604051602001612fa2959493929190614af8565b60405160208183030381529060405280519060200120905090565b60007f5ab42ced628888259c08ac98db1eb0cf702fc1501344311d8b100cd1bfe4bb00905090565b60006040517f190100000000000000000000000000000000000000000000000000000000000081528360028201528260228201526042812091505092915050565b60008060007f7fffffffffffffffffffffffffffffff5d576e7357a4501ddfe92f46681b20a08460001c1115613066576000600385925092509250613110565b60006001888888886040516000815260200160405260405161308b9493929190614b4b565b6020604051602081039080840390855afa1580156130ad573d6000803e3d6000fd5b505050602060405103519050600073ffffffffffffffffffffffffffffffffffffffff168173ffffffffffffffffffffffffffffffffffffffff160361310157600060016000801b93509350935050613110565b8060008060001b935093509350505b9450945094915050565b6000600381111561312e5761312d614b90565b5b82600381111561314157613140614b90565b5b031561327a576001600381111561315b5761315a614b90565b5b82600381111561316e5761316d614b90565b5b036131a5576040517ff645eedf00000000000000000000000000000000000000000000000000000000815260040160405180910390fd5b600260038111156131b9576131b8614b90565b5b8260038111156131cc576131cb614b90565b5b03613211578060001c6040517ffce698f70000000000000000000000000000000000000000000000000000000081526004016132089190613868565b60405180910390fd5b60038081111561322457613223614b90565b5b82600381111561323757613236614b90565b5b0361327957806040517fd78bce0c0000000000000000000000000000000000000000000000000000000081526004016132709190613950565b60405180910390fd5b5b5050565b600061328861218a565b60000160089054906101000a900460ff16905090565b6000806132a961279b565b905060006132b56127c3565b90506000815111156132d257808051906020012092505050613317565b6000826000015490506000801b81146132f057809350505050613317565b7fc5d2460186f7233c927e7db2dcc703c0e500b653ca82273b7bfad8045d85a47093505050505b90565b60008061332561279b565b90506000613331612864565b905060008151111561334e57808051906020012092505050613393565b6000826001015490506000801b811461336c57809350505050613393565b7fc5d2460186f7233c927e7db2dcc703c0e500b653ca82273b7bfad8045d85a47093505050505b90565b6000604051905090565b600080fd5b600080fd5b600073ffffffffffffffffffffffffffffffffffffffff82169050919050565b60006133d5826133aa565b9050919050565b6133e5816133ca565b81146133f057600080fd5b50565b600081359050613402816133dc565b92915050565b6000819050919050565b61341b81613408565b811461342657600080fd5b50565b60008135905061343881613412565b92915050565b600080fd5b600080fd5b6000601f19601f8301169050919050565b7f4e487b7100000000000000000000000000000000000000000000000000000000600052604160045260246000fd5b61349182613448565b810181811067ffffffffffffffff821117156134b0576134af613459565b5b80604052505050565b60006134c3613396565b90506134cf8282613488565b919050565b600067ffffffffffffffff8211156134ef576134ee613459565b5b6134f882613448565b9050602081019050919050565b82818337600083830152505050565b6000613527613522846134d4565b6134b9565b90508281526020810184848401111561354357613542613443565b5b61354e848285613505565b509392505050565b600082601f83011261356b5761356a61343e565b5b813561357b848260208601613514565b91505092915050565b600067ffffffffffffffff82111561359f5761359e613459565b5b602082029050602081019050919050565b600080fd5b60006135c86135c384613584565b6134b9565b905080838252602082019050602084028301858111156135eb576135ea6135b0565b5b835b8181101561361457806136008882613429565b8452602084019350506020810190506135ed565b5050509392505050565b600082601f8301126136335761363261343e565b5b81356136438482602086016135b5565b91505092915050565b600080600080600080600060e0888a03121561366b5761366a6133a0565b5b60006136798a828b016133f3565b975050602061368a8a828b01613429565b965050604088013567ffffffffffffffff8111156136ab576136aa6133a5565b5b6136b78a828b01613556565b955050606088013567ffffffffffffffff8111156136d8576136d76133a5565b5b6136e48a828b01613556565b94505060806136f58a828b01613429565b93505060a06137068a828b016133f3565b92505060c088013567ffffffffffffffff811115613727576137266133a5565b5b6137338a828b0161361e565b91505092959891949750929550565b600081519050919050565b600082825260208201905092915050565b60005b8381101561377c578082015181840152602081019050613761565b60008484015250505050565b600061379382613742565b61379d818561374d565b93506137ad81856020860161375e565b6137b681613448565b840191505092915050565b600060208201905081810360008301526137db8184613788565b905092915050565b600080604083850312156137fa576137f96133a0565b5b6000613808858286016133f3565b925050602061381985828601613429565b9150509250929050565b60008115159050919050565b61383881613823565b82525050565b6000602082019050613853600083018461382f565b92915050565b61386281613408565b82525050565b600060208201905061387d6000830184613859565b92915050565b61388c816133ca565b82525050565b60006020820190506138a76000830184613883565b92915050565b6000806000606084860312156138c6576138c56133a0565b5b60006138d4868287016133f3565b93505060206138e5868287016133f3565b92505060406138f686828701613429565b9150509250925092565b600060ff82169050919050565b61391681613900565b82525050565b6000602082019050613931600083018461390d565b92915050565b6000819050919050565b61394a81613937565b82525050565b60006020820190506139656000830184613941565b92915050565b600060208284031215613981576139806133a0565b5b600061398f84828501613429565b91505092915050565b6000819050919050565b60006139bd6139b86139b3846133aa565b613998565b6133aa565b9050919050565b60006139cf826139a2565b9050919050565b60006139e1826139c4565b9050919050565b6139f1816139d6565b82525050565b6000602082019050613a0c60008301846139e8565b92915050565b600060208284031215613a2857613a276133a0565b5b6000613a36848285016133f3565b91505092915050565b6000613a4a826139c4565b9050919050565b613a5a81613a3f565b82525050565b6000602082019050613a756000830184613a51565b92915050565b60007fff0000000000000000000000000000000000000000000000000000000000000082169050919050565b613ab081613a7b565b82525050565b600081519050919050565b600082825260208201905092915050565b6000819050602082019050919050565b613aeb81613408565b82525050565b6000613afd8383613ae2565b60208301905092915050565b6000602082019050919050565b6000613b2182613ab6565b613b2b8185613ac1565b9350613b3683613ad2565b8060005b83811015613b67578151613b4e8882613af1565b9750613b5983613b09565b925050600181019050613b3a565b5085935050505092915050565b600060e082019050613b89600083018a613aa7565b8181036020830152613b9b8189613788565b90508181036040830152613baf8188613788565b9050613bbe6060830187613859565b613bcb6080830186613883565b613bd860a0830185613941565b81810360c0830152613bea8184613b16565b905098975050505050505050565b613c0181613900565b8114613c0c57600080fd5b50565b600081359050613c1e81613bf8565b92915050565b613c2d81613937565b8114613c3857600080fd5b50565b600081359050613c4a81613c24565b92915050565b600080600080600080600060e0888a031215613c6f57613c6e6133a0565b5b6000613c7d8a828b016133f3565b9750506020613c8e8a828b016133f3565b9650506040613c9f8a828b01613429565b9550506060613cb08a828b01613429565b9450506080613cc18a828b01613c0f565b93505060a0613cd28a828b01613c3b565b92505060c0613ce38a828b01613c3b565b91505092959891949750929550565b60008060408385031215613d0957613d086133a0565b5b6000613d17858286016133f3565b9250506020613d28858286016133f3565b9150509250929050565b600060c082019050613d476000830189613859565b613d546020830188613859565b613d616040830187613859565b613d6e6060830186613859565b613d7b6080830185613859565b613d8860a083018461382f565b979650505050505050565b7f4e487b7100000000000000000000000000000000000000000000000000000000600052601160045260246000fd5b60008160011c9050919050565b6000808291508390505b6001851115613e1957808604811115613df557613df4613d93565b5b6001851615613e045780820291505b8081029050613e1285613dc2565b9450613dd9565b94509492505050565b600082613e325760019050613eee565b81613e405760009050613eee565b8160018114613e565760028114613e6057613e8f565b6001915050613eee565b60ff841115613e7257613e71613d93565b5b8360020a915084821115613e8957613e88613d93565b5b50613eee565b5060208310610133831016604e8410600b8410161715613ec45782820a905083811115613ebf57613ebe613d93565b5b613eee565b613ed18484846001613dcf565b92509050818404811115613ee857613ee7613d93565b5b81810290505b9392505050565b6000613f0082613408565b9150613f0b83613408565b9250613f387fffffffffffffffffffffffffffffffffffffffffffffffffffffffffffffffff8484613e22565b905092915050565b7f4e487b7100000000000000000000000000000000000000000000000000000000600052603260045260246000fd5b6000613f7a82613408565b9150613f8583613408565b9250828203905081811115613f9d57613f9c613d93565b5b92915050565b6000613fae82613408565b9150613fb983613408565b9250828202613fc781613408565b91508282048414831517613fde57613fdd613d93565b5b5092915050565b7f4e487b7100000000000000000000000000000000000000000000000000000000600052601260045260246000fd5b600061401f82613408565b915061402a83613408565b92508261403a57614039613fe5565b5b828204905092915050565b7f54524144455f4255524e5f524154494f5f494e56414c49440000000000000000600082015250565b600061407b60188361374d565b915061408682614045565b602082019050919050565b600060208201905081810360008301526140aa8161406e565b9050919050565b7f54524144455f4645455f524154494f5f494e56414c4944000000000000000000600082015250565b60006140e760178361374d565b91506140f2826140b1565b602082019050919050565b60006020820190508181036000830152614116816140da565b9050919050565b6000819050919050565b600067ffffffffffffffff82169050919050565b600061415661415161414c8461411d565b613998565b614127565b9050919050565b6141668161413b565b82525050565b6000602082019050614181600083018461415d565b92915050565b7f4e487b7100000000000000000000000000000000000000000000000000000000600052602260045260246000fd5b600060028204905060018216806141ce57607f821691505b6020821081036141e1576141e0614187565b5b50919050565b60006040820190506141fc6000830185613883565b6142096020830184613859565b9392505050565b60008151905061421f816133dc565b92915050565b60006020828403121561423b5761423a6133a0565b5b600061424984828501614210565b91505092915050565b60006040820190506142676000830185613883565b6142746020830184613883565b9392505050565b61428481613823565b811461428f57600080fd5b50565b6000815190506142a18161427b565b92915050565b6000602082840312156142bd576142bc6133a0565b5b60006142cb84828501614292565b91505092915050565b60006142df82613408565b91506142ea83613408565b925082820190508082111561430257614301613d93565b5b92915050565b6000819050919050565b600061432d61432861432384614308565b613998565b613408565b9050919050565b61433d81614312565b82525050565b600060c0820190506143586000830189613883565b6143656020830188613859565b6143726040830187614334565b61437f6060830186614334565b61438c6080830185613883565b61439960a0830184613859565b979650505050505050565b6000815190506143b381613412565b92915050565b6000806000606084860312156143d2576143d16133a0565b5b60006143e0868287016143a4565b93505060206143f1868287016143a4565b9250506040614402868287016143a4565b9150509250925092565b7f4549503731323a20556e696e697469616c697a65640000000000000000000000600082015250565b600061444260158361374d565b915061444d8261440c565b602082019050919050565b6000602082019050818103600083015261447181614435565b9050919050565b6000806040838503121561448f5761448e6133a0565b5b600061449d858286016143a4565b92505060206144ae858286016143a4565b9150509250929050565b600060c0820190506144cd6000830189613941565b6144da6020830188613883565b6144e76040830187613883565b6144f46060830186613859565b6145016080830185613859565b61450e60a0830184613859565b979650505050505050565b7f596f7520646f206e6f74206861766520616e206163746976652076657374696e60008201527f67207363686564756c652e000000000000000000000000000000000000000000602082015250565b6000614575602b8361374d565b915061458082614519565b604082019050919050565b600060208201905081810360008301526145a481614568565b9050919050565b7f56657374696e6720686173206e6f742073746172746564207965740000000000600082015250565b60006145e1601b8361374d565b91506145ec826145ab565b602082019050919050565b60006020820190508181036000830152614610816145d4565b9050919050565b7f4e6f2076657374656420746f6b656e7320617661696c61626c6520746f20636c60008201527f61696d0000000000000000000000000000000000000000000000000000000000602082015250565b600061467360238361374d565b915061467e82614617565b604082019050919050565b600060208201905081810360008301526146a281614666565b9050919050565b7f436c61696d206578636565647320616c6c6f636174696f6e0000000000000000600082015250565b60006146df60188361374d565b91506146ea826146a9565b602082019050919050565b6000602082019050818103600083015261470e816146d2565b9050919050565b600060608201905061472a6000830186613883565b6147376020830185613883565b6147446040830184613859565b949350505050565b600060e082019050614761600083018a613883565b61476e6020830189613883565b61477b6040830188613859565b6147886060830187614334565b6147956080830186614334565b6147a260a0830185613883565b6147af60c0830184613859565b98975050505050505050565b7f4e6f7420656e6f75676820746f6b656e7320616c6c6f636174656420666f722060008201527f76657374696e6700000000000000000000000000000000000000000000000000602082015250565b600061481760278361374d565b9150614822826147bb565b604082019050919050565b600060208201905081810360008301526148468161480a565b9050919050565b60006060820190506148626000830186613883565b61486f6020830185613859565b61487c6040830184613859565b949350505050565b60008190508160005260206000209050919050565b60006020601f8301049050919050565b600082821b905092915050565b6000600883026148e67fffffffffffffffffffffffffffffffffffffffffffffffffffffffffffffffff826148a9565b6148f086836148a9565b95508019841693508086168417925050509392505050565b600061492361491e61491984613408565b613998565b613408565b9050919050565b6000819050919050565b61493d83614908565b6149516149498261492a565b8484546148b6565b825550505050565b600090565b614966614959565b614971818484614934565b505050565b5b818110156149955761498a60008261495e565b600181019050614977565b5050565b601f8211156149da576149ab81614884565b6149b484614899565b810160208510156149c3578190505b6149d76149cf85614899565b830182614976565b50505b505050565b600082821c905092915050565b60006149fd600019846008026149df565b1980831691505092915050565b6000614a1683836149ec565b9150826002028217905092915050565b614a2f82613742565b67ffffffffffffffff811115614a4857614a47613459565b5b614a5282546141b6565b614a5d828285614999565b600060209050601f831160018114614a905760008415614a7e578287015190505b614a888582614a0a565b865550614af0565b601f198416614a9e86614884565b60005b82811015614ac657848901518255600182019150602085019450602081019050614aa1565b86831015614ae35784890151614adf601f8916826149ec565b8355505b6001600288020188555050505b505050505050565b600060a082019050614b0d6000830188613941565b614b1a6020830187613941565b614b276040830186613941565b614b346060830185613859565b614b416080830184613883565b9695505050505050565b6000608082019050614b606000830187613941565b614b6d602083018661390d565b614b7a6040830185613941565b614b876060830184613941565b95945050505050565b7f4e487b7100000000000000000000000000000000000000000000000000000000600052602160045260246000fdfea264697066735822122051bf46705349c3576316e6ebff032f98574b1530064689809a81dddc8466062664736f6c63430008190033",
  "linkReferences": {},
  "deployedLinkReferences": {}
}