{
  "_format": "hh-sol-artifact-1",
  "contractName": "CustomToken",
  "sourceName": "contracts/MyToken.sol",
  "abi": [
    {
      "inputs": [],
      "stateMutability": "nonpayable",
      "type": "constructor"
    },
    {
      "inputs": [],
      "name": "ECDSAInvalidSignature",
      "type": "error"
    },
    {
      "inputs": [
        {
          "internalType": "uint256",
          "name": "length",
          "type": "uint256"
        }
      ],
      "name": "ECDSAInvalidSignatureLength",
      "type": "error"
    },
    {
      "inputs": [
        {
          "internalType": "bytes32",
          "name": "s",
          "type": "bytes32"
        }
      ],
      "name": "ECDSAInvalidSignatureS",
      "type": "error"
    },
    {
      "inputs": [
        {
          "internalType": "address",
          "name": "spender",
          "type": "address"
        },
        {
          "internalType": "uint256",
          "name": "allowance",
          "type": "uint256"
        },
        {
          "internalType": "uint256",
          "name": "needed",
          "type": "uint256"
        }
      ],
      "name": "ERC20InsufficientAllowance",
      "type": "error"
    },
    {
      "inputs": [
        {
          "internalType": "address",
          "name": "sender",
          "type": "address"
        },
        {
          "internalType": "uint256",
          "name": "balance",
          "type": "uint256"
        },
        {
          "internalType": "uint256",
          "name": "needed",
          "type": "uint256"
        }
      ],
      "name": "ERC20InsufficientBalance",
      "type": "error"
    },
    {
      "inputs": [
        {
          "internalType": "address",
          "name": "approver",
          "type": "address"
        }
      ],
      "name": "ERC20InvalidApprover",
      "type": "error"
    },
    {
      "inputs": [
        {
          "internalType": "address",
          "name": "receiver",
          "type": "address"
        }
      ],
      "name": "ERC20InvalidReceiver",
      "type": "error"
    },
    {
      "inputs": [
        {
          "internalType": "address",
          "name": "sender",
          "type": "address"
        }
      ],
      "name": "ERC20InvalidSender",
      "type": "error"
    },
    {
      "inputs": [
        {
          "internalType": "address",
          "name": "spender",
          "type": "address"
        }
      ],
      "name": "ERC20InvalidSpender",
      "type": "error"
    },
    {
      "inputs": [
        {
          "internalType": "uint256",
          "name": "deadline",
          "type": "uint256"
        }
      ],
      "name": "ERC2612ExpiredSignature",
      "type": "error"
    },
    {
      "inputs": [
        {
          "internalType": "address",
          "name": "signer",
          "type": "address"
        },
        {
          "internalType": "address",
          "name": "owner",
          "type": "address"
        }
      ],
      "name": "ERC2612InvalidSigner",
      "type": "error"
    },
    {
      "inputs": [
        {
          "internalType": "address",
          "name": "account",
          "type": "address"
        },
        {
          "internalType": "uint256",
          "name": "currentNonce",
          "type": "uint256"
        }
      ],
      "name": "InvalidAccountNonce",
      "type": "error"
    },
    {
      "inputs": [],
      "name": "InvalidInitialization",
      "type": "error"
    },
    {
      "inputs": [],
      "name": "NotInitializing",
      "type": "error"
    },
    {
      "inputs": [
        {
          "internalType": "address",
          "name": "owner",
          "type": "address"
        }
      ],
      "name": "OwnableInvalidOwner",
      "type": "error"
    },
    {
      "inputs": [
        {
          "internalType": "address",
          "name": "account",
          "type": "address"
        }
      ],
      "name": "OwnableUnauthorizedAccount",
      "type": "error"
    },
    {
      "anonymous": false,
      "inputs": [
        {
          "indexed": true,
          "internalType": "address",
          "name": "owner",
          "type": "address"
        },
        {
          "indexed": true,
          "internalType": "address",
          "name": "spender",
          "type": "address"
        },
        {
          "indexed": false,
          "internalType": "uint256",
          "name": "value",
          "type": "uint256"
        }
      ],
      "name": "Approval",
      "type": "event"
    },
    {
      "anonymous": false,
      "inputs": [],
      "name": "EIP712DomainChanged",
      "type": "event"
    },
    {
      "anonymous": false,
      "inputs": [
        {
          "indexed": false,
          "internalType": "uint64",
          "name": "version",
          "type": "uint64"
        }
      ],
      "name": "Initialized",
      "type": "event"
    },
    {
      "anonymous": false,
      "inputs": [
        {
          "indexed": true,
          "internalType": "address",
          "name": "previousOwner",
          "type": "address"
        },
        {
          "indexed": true,
          "internalType": "address",
          "name": "newOwner",
          "type": "address"
        }
      ],
      "name": "OwnershipTransferred",
      "type": "event"
    },
    {
      "anonymous": false,
      "inputs": [
        {
          "indexed": true,
          "internalType": "address",
          "name": "from",
          "type": "address"
        },
        {
          "indexed": true,
          "internalType": "address",
          "name": "to",
          "type": "address"
        },
        {
          "indexed": false,
          "internalType": "uint256",
          "name": "value",
          "type": "uint256"
        }
      ],
      "name": "Transfer",
      "type": "event"
    },
    {
      "inputs": [],
      "name": "DOMAIN_SEPARATOR",
      "outputs": [
        {
          "internalType": "bytes32",
          "name": "",
          "type": "bytes32"
        }
      ],
      "stateMutability": "view",
      "type": "function"
    },
    {
      "inputs": [
        {
          "internalType": "address",
          "name": "owner",
          "type": "address"
        },
        {
          "internalType": "address",
          "name": "spender",
          "type": "address"
        }
      ],
      "name": "allowance",
      "outputs": [
        {
          "internalType": "uint256",
          "name": "",
          "type": "uint256"
        }
      ],
      "stateMutability": "view",
      "type": "function"
    },
    {
      "inputs": [
        {
          "internalType": "address",
          "name": "spender",
          "type": "address"
        },
        {
          "internalType": "uint256",
          "name": "value",
          "type": "uint256"
        }
      ],
      "name": "approve",
      "outputs": [
        {
          "internalType": "bool",
          "name": "",
          "type": "bool"
        }
      ],
      "stateMutability": "nonpayable",
      "type": "function"
    },
    {
      "inputs": [
        {
          "internalType": "address",
          "name": "account",
          "type": "address"
        }
      ],
      "name": "balanceOf",
      "outputs": [
        {
          "internalType": "uint256",
          "name": "",
          "type": "uint256"
        }
      ],
      "stateMutability": "view",
      "type": "function"
    },
    {
      "inputs": [
        {
          "internalType": "uint256",
          "name": "value",
          "type": "uint256"
        }
      ],
      "name": "burn",
      "outputs": [],
      "stateMutability": "nonpayable",
      "type": "function"
    },
    {
      "inputs": [
        {
          "internalType": "address",
          "name": "account",
          "type": "address"
        },
        {
          "internalType": "uint256",
          "name": "value",
          "type": "uint256"
        }
      ],
      "name": "burnFrom",
      "outputs": [],
      "stateMutability": "nonpayable",
      "type": "function"
    },
    {
      "inputs": [],
      "name": "decimals",
      "outputs": [
        {
          "internalType": "uint8",
          "name": "",
          "type": "uint8"
        }
      ],
      "stateMutability": "view",
      "type": "function"
    },
    {
      "inputs": [],
      "name": "eip712Domain",
      "outputs": [
        {
          "internalType": "bytes1",
          "name": "fields",
          "type": "bytes1"
        },
        {
          "internalType": "string",
          "name": "name",
          "type": "string"
        },
        {
          "internalType": "string",
          "name": "version",
          "type": "string"
        },
        {
          "internalType": "uint256",
          "name": "chainId",
          "type": "uint256"
        },
        {
          "internalType": "address",
          "name": "verifyingContract",
          "type": "address"
        },
        {
          "internalType": "bytes32",
          "name": "salt",
          "type": "bytes32"
        },
        {
          "internalType": "uint256[]",
          "name": "extensions",
          "type": "uint256[]"
        }
      ],
      "stateMutability": "view",
      "type": "function"
    },
    {
      "inputs": [
        {
          "internalType": "address",
          "name": "_creator",
          "type": "address"
        },
        {
          "internalType": "uint256",
          "name": "_totalSupply",
          "type": "uint256"
        },
        {
          "internalType": "string",
          "name": "_name",
          "type": "string"
        },
        {
          "internalType": "string",
          "name": "_symbol",
          "type": "string"
        },
        {
          "internalType": "uint8",
          "name": "_decimals",
          "type": "uint8"
        },
        {
          "internalType": "uint256",
          "name": "_tradeBurnRatio",
          "type": "uint256"
        },
        {
          "internalType": "uint256",
          "name": "_tradeFeeRatio",
          "type": "uint256"
        }
      ],
      "name": "init",
      "outputs": [],
      "stateMutability": "nonpayable",
      "type": "function"
    },
    {
      "inputs": [],
      "name": "name",
      "outputs": [
        {
          "internalType": "string",
          "name": "",
          "type": "string"
        }
      ],
      "stateMutability": "view",
      "type": "function"
    },
    {
      "inputs": [
        {
          "internalType": "address",
          "name": "owner",
          "type": "address"
        }
      ],
      "name": "nonces",
      "outputs": [
        {
          "internalType": "uint256",
          "name": "",
          "type": "uint256"
        }
      ],
      "stateMutability": "view",
      "type": "function"
    },
    {
      "inputs": [],
      "name": "owner",
      "outputs": [
        {
          "internalType": "address",
          "name": "",
          "type": "address"
        }
      ],
      "stateMutability": "view",
      "type": "function"
    },
    {
      "inputs": [
        {
          "internalType": "address",
          "name": "owner",
          "type": "address"
        },
        {
          "internalType": "address",
          "name": "spender",
          "type": "address"
        },
        {
          "internalType": "uint256",
          "name": "value",
          "type": "uint256"
        },
        {
          "internalType": "uint256",
          "name": "deadline",
          "type": "uint256"
        },
        {
          "internalType": "uint8",
          "name": "v",
          "type": "uint8"
        },
        {
          "internalType": "bytes32",
          "name": "r",
          "type": "bytes32"
        },
        {
          "internalType": "bytes32",
          "name": "s",
          "type": "bytes32"
        }
      ],
      "name": "permit",
      "outputs": [],
      "stateMutability": "nonpayable",
      "type": "function"
    },
    {
      "inputs": [],
      "name": "renounceOwnership",
      "outputs": [],
      "stateMutability": "nonpayable",
      "type": "function"
    },
    {
      "inputs": [],
      "name": "symbol",
      "outputs": [
        {
          "internalType": "string",
          "name": "",
          "type": "string"
        }
      ],
      "stateMutability": "view",
      "type": "function"
    },
    {
      "inputs": [],
      "name": "totalSupply",
      "outputs": [
        {
          "internalType": "uint256",
          "name": "",
          "type": "uint256"
        }
      ],
      "stateMutability": "view",
      "type": "function"
    },
    {
      "inputs": [],
      "name": "tradeBurnRatio",
      "outputs": [
        {
          "internalType": "uint256",
          "name": "",
          "type": "uint256"
        }
      ],
      "stateMutability": "view",
      "type": "function"
    },
    {
      "inputs": [],
      "name": "tradeFeeRatio",
      "outputs": [
        {
          "internalType": "uint256",
          "name": "",
          "type": "uint256"
        }
      ],
      "stateMutability": "view",
      "type": "function"
    },
    {
      "inputs": [
        {
          "internalType": "address",
          "name": "to",
          "type": "address"
        },
        {
          "internalType": "uint256",
          "name": "value",
          "type": "uint256"
        }
      ],
      "name": "transfer",
      "outputs": [
        {
          "internalType": "bool",
          "name": "",
          "type": "bool"
        }
      ],
      "stateMutability": "nonpayable",
      "type": "function"
    },
    {
      "inputs": [
        {
          "internalType": "address",
          "name": "from",
          "type": "address"
        },
        {
          "internalType": "address",
          "name": "to",
          "type": "address"
        },
        {
          "internalType": "uint256",
          "name": "value",
          "type": "uint256"
        }
      ],
      "name": "transferFrom",
      "outputs": [
        {
          "internalType": "bool",
          "name": "",
          "type": "bool"
        }
      ],
      "stateMutability": "nonpayable",
      "type": "function"
    },
    {
      "inputs": [
        {
          "internalType": "address",
          "name": "newOwner",
          "type": "address"
        }
      ],
      "name": "transferOwnership",
      "outputs": [],
      "stateMutability": "nonpayable",
      "type": "function"
    },
    {
      "inputs": [
        {
          "internalType": "uint256",
          "name": "_ratio",
          "type": "uint256"
        }
      ],
      "name": "updateBurnRatio",
      "outputs": [],
      "stateMutability": "nonpayable",
      "type": "function"
    },
    {
      "inputs": [
        {
          "internalType": "uint256",
          "name": "_fee",
          "type": "uint256"
        }
      ],
      "name": "updateFee",
      "outputs": [],
      "stateMutability": "nonpayable",
      "type": "function"
    }
  ],
  "bytecode": "0x608060405234801561001057600080fd5b5061001f61002460201b60201c565b61018e565b600061003461012860201b60201c565b90508060000160089054906101000a900460ff161561007f576040517ff92ee8a900000000000000000000000000000000000000000000000000000000815260040160405180910390fd5b67ffffffffffffffff80168160000160009054906101000a900467ffffffffffffffff1667ffffffffffffffff16146101255767ffffffffffffffff8160000160006101000a81548167ffffffffffffffff021916908367ffffffffffffffff1602179055507fc7f505b2f371ae2175ee4913f4499e1f2633a7b5936321eed1cdaeb6115181d267ffffffffffffffff60405161011c9190610173565b60405180910390a15b50565b60007ff0c57e16840df040f15088dc2f81fe391c3923bec73e23a9662efc9c229c6a00905090565b600067ffffffffffffffff82169050919050565b61016d81610150565b82525050565b60006020820190506101886000830184610164565b92915050565b6130a38061019d6000396000f3fe608060405234801561001057600080fd5b506004361061014d5760003560e01c80637ecebe00116100c3578063a9059cbb1161007c578063a9059cbb14610382578063ad3611cd146103b2578063d505accf146103ce578063dd62ed3e146103ea578063e59850f71461041a578063f2fde38b146104385761014d565b80637ecebe00146102b857806384b0196e146102e8578063870c66d61461030c5780638da5cb5b1461032a5780639012c4a81461034857806395d89b41146103645761014d565b80633644e515116101155780633644e5151461020c5780633dd9495b1461022a57806342966c681461024657806370a0823114610262578063715018a61461029257806379cc67901461029c5761014d565b806306fdde0314610152578063095ea7b31461017057806318160ddd146101a057806323b872dd146101be578063313ce567146101ee575b600080fd5b61015a610454565b6040516101679190612030565b60405180910390f35b61018a600480360381019061018591906120fa565b6104f5565b6040516101979190612155565b60405180910390f35b6101a8610518565b6040516101b5919061217f565b60405180910390f35b6101d860048036038101906101d3919061219a565b610530565b6040516101e59190612155565b60405180910390f35b6101f661055f565b6040516102039190612209565b60405180910390f35b610214610568565b604051610221919061223d565b60405180910390f35b610244600480360381019061023f91906123b9565b610577565b005b610260600480360381019061025b9190612493565b6107f2565b005b61027c600480360381019061027791906124c0565b610806565b604051610289919061217f565b60405180910390f35b61029a61085d565b005b6102b660048036038101906102b191906120fa565b610871565b005b6102d260048036038101906102cd91906124c0565b610891565b6040516102df919061217f565b60405180910390f35b6102f06108a3565b60405161030397969594939291906125f5565b60405180910390f35b6103146109b5565b604051610321919061217f565b60405180910390f35b6103326109bb565b60405161033f9190612679565b60405180910390f35b610362600480360381019061035d9190612493565b6109f3565b005b61036c610a57565b6040516103799190612030565b60405180910390f35b61039c600480360381019061039791906120fa565b610af8565b6040516103a99190612155565b60405180910390f35b6103cc60048036038101906103c79190612493565b610baa565b005b6103e860048036038101906103e391906126c0565b610c0e565b005b61040460048036038101906103ff9190612762565b610d56565b604051610411919061217f565b60405180910390f35b610422610deb565b60405161042f919061217f565b60405180910390f35b610452600480360381019061044d91906124c0565b610df1565b005b60606000610460610e77565b9050806003018054610471906127d1565b80601f016020809104026020016040519081016040528092919081815260200182805461049d906127d1565b80156104ea5780601f106104bf576101008083540402835291602001916104ea565b820191906000526020600020905b8154815290600101906020018083116104cd57829003601f168201915b505050505091505090565b600080610500610e9f565b905061050d818585610ea7565b600191505092915050565b600080610523610e77565b9050806002015491505090565b60008061053b610e9f565b9050610548858285610eb9565b610553858585610f4d565b60019150509392505050565b60006012905090565b6000610572611041565b905090565b6000610581611050565b905060008160000160089054906101000a900460ff1615905060008260000160009054906101000a900467ffffffffffffffff1690506000808267ffffffffffffffff161480156105cf5750825b9050600060018367ffffffffffffffff16148015610604575060003073ffffffffffffffffffffffffffffffffffffffff163b145b905081158015610612575080155b15610649576040517ff92ee8a900000000000000000000000000000000000000000000000000000000815260040160405180910390fd5b60018560000160006101000a81548167ffffffffffffffff021916908367ffffffffffffffff16021790555083156106995760018560000160086101000a81548160ff0219169083151502179055505b6106a38a8a611078565b6106ac8a61108e565b6106b58c6110d8565b6106d68c89600a6106c69190612964565b8d6106d191906129af565b6110ec565b600087101580156106e957506113888711155b610728576040517f08c379a000000000000000000000000000000000000000000000000000000000815260040161071f90612a3d565b60405180910390fd5b6000861015801561073b57506113888611155b61077a576040517f08c379a000000000000000000000000000000000000000000000000000000000815260040161077190612aa9565b60405180910390fd5b866000819055508560018190555083156107e45760008560000160086101000a81548160ff0219169083151502179055507fc7f505b2f371ae2175ee4913f4499e1f2633a7b5936321eed1cdaeb6115181d260016040516107db9190612b22565b60405180910390a15b505050505050505050505050565b6108036107fd610e9f565b8261116e565b50565b600080610811610e77565b90508060000160008473ffffffffffffffffffffffffffffffffffffffff1673ffffffffffffffffffffffffffffffffffffffff16815260200190815260200160002054915050919050565b6108656111f0565b61086f6000611277565b565b6108838261087d610e9f565b83610eb9565b61088d828261116e565b5050565b600061089c8261134e565b9050919050565b60006060806000806000606060006108b96113a5565b90506000801b81600001541480156108d757506000801b8160010154145b610916576040517f08c379a000000000000000000000000000000000000000000000000000000000815260040161090d90612b89565b60405180910390fd5b61091e6113cd565b61092661146e565b46306000801b600067ffffffffffffffff81111561094757610946612262565b5b6040519080825280602002602001820160405280156109755781602001602082028036833780820191505090505b507f0f0000000000000000000000000000000000000000000000000000000000000095949392919097509750975097509750975097505090919293949596565b60015481565b6000806109c661150f565b90508060000160009054906101000a900473ffffffffffffffffffffffffffffffffffffffff1691505090565b6109fb6111f0565b60008110158015610a0e57506113888111155b610a4d576040517f08c379a0000000000000000000000000000000000000000000000000000000008152600401610a4490612aa9565b60405180910390fd5b8060018190555050565b60606000610a63610e77565b9050806004018054610a74906127d1565b80601f0160208091040260200160405190810160405280929190818152602001828054610aa0906127d1565b8015610aed5780601f10610ac257610100808354040283529160200191610aed565b820191906000526020600020905b815481529060010190602001808311610ad057829003601f168201915b505050505091505090565b600080610b03610e9f565b9050600080600080541115610b3a5761271060005486610b2391906129af565b610b2d9190612bd8565b9150610b39838361116e565b5b60006001541115610b765761271060015486610b5691906129af565b610b609190612bd8565b9050610b7433610b6e6109bb565b83610530565b505b6000818387610b859190612c09565b610b8f9190612c09565b9050610b9c848883610f4d565b600194505050505092915050565b610bb26111f0565b60008110158015610bc557506113888111155b610c04576040517f08c379a0000000000000000000000000000000000000000000000000000000008152600401610bfb90612a3d565b60405180910390fd5b8060018190555050565b83421115610c5357836040517f62791302000000000000000000000000000000000000000000000000000000008152600401610c4a919061217f565b60405180910390fd5b60007f6e71edae12b1b97f4d1f60370fef10105fa2faae0126114a169c64845d6126c9888888610c828c611537565b89604051602001610c9896959493929190612c3d565b6040516020818303038152906040528051906020012090506000610cbb8261159c565b90506000610ccb828787876115b6565b90508973ffffffffffffffffffffffffffffffffffffffff168173ffffffffffffffffffffffffffffffffffffffff1614610d3f57808a6040517f4b800e46000000000000000000000000000000000000000000000000000000008152600401610d36929190612c9e565b60405180910390fd5b610d4a8a8a8a610ea7565b50505050505050505050565b600080610d61610e77565b90508060010160008573ffffffffffffffffffffffffffffffffffffffff1673ffffffffffffffffffffffffffffffffffffffff16815260200190815260200160002060008473ffffffffffffffffffffffffffffffffffffffff1673ffffffffffffffffffffffffffffffffffffffff1681526020019081526020016000205491505092915050565b60005481565b610df96111f0565b600073ffffffffffffffffffffffffffffffffffffffff168173ffffffffffffffffffffffffffffffffffffffff1603610e6b5760006040517f1e4fbdf7000000000000000000000000000000000000000000000000000000008152600401610e629190612679565b60405180910390fd5b610e7481611277565b50565b60007f52c63247e1f47db19d5ce0460030c497f067ca4cebf71ba98eeadabe20bace00905090565b600033905090565b610eb483838360016115e6565b505050565b6000610ec58484610d56565b90507fffffffffffffffffffffffffffffffffffffffffffffffffffffffffffffffff8114610f475781811015610f37578281836040517ffb8f41b2000000000000000000000000000000000000000000000000000000008152600401610f2e93929190612cc7565b60405180910390fd5b610f46848484840360006115e6565b5b50505050565b600073ffffffffffffffffffffffffffffffffffffffff168373ffffffffffffffffffffffffffffffffffffffff1603610fbf5760006040517f96c6fd1e000000000000000000000000000000000000000000000000000000008152600401610fb69190612679565b60405180910390fd5b600073ffffffffffffffffffffffffffffffffffffffff168273ffffffffffffffffffffffffffffffffffffffff16036110315760006040517fec442f050000000000000000000000000000000000000000000000000000000081526004016110289190612679565b60405180910390fd5b61103c8383836117cc565b505050565b600061104b611a0b565b905090565b60007ff0c57e16840df040f15088dc2f81fe391c3923bec73e23a9662efc9c229c6a00905090565b611080611a6f565b61108a8282611aaf565b5050565b611096611a6f565b6110d5816040518060400160405280600181526020017f3100000000000000000000000000000000000000000000000000000000000000815250611aec565b50565b6110e0611a6f565b6110e981611b41565b50565b600073ffffffffffffffffffffffffffffffffffffffff168273ffffffffffffffffffffffffffffffffffffffff160361115e5760006040517fec442f050000000000000000000000000000000000000000000000000000000081526004016111559190612679565b60405180910390fd5b61116a600083836117cc565b5050565b600073ffffffffffffffffffffffffffffffffffffffff168273ffffffffffffffffffffffffffffffffffffffff16036111e05760006040517f96c6fd1e0000000000000000000000000000000000000000000000000000000081526004016111d79190612679565b60405180910390fd5b6111ec826000836117cc565b5050565b6111f8610e9f565b73ffffffffffffffffffffffffffffffffffffffff166112166109bb565b73ffffffffffffffffffffffffffffffffffffffff161461127557611239610e9f565b6040517f118cdaa700000000000000000000000000000000000000000000000000000000815260040161126c9190612679565b60405180910390fd5b565b600061128161150f565b905060008160000160009054906101000a900473ffffffffffffffffffffffffffffffffffffffff169050828260000160006101000a81548173ffffffffffffffffffffffffffffffffffffffff021916908373ffffffffffffffffffffffffffffffffffffffff1602179055508273ffffffffffffffffffffffffffffffffffffffff168173ffffffffffffffffffffffffffffffffffffffff167f8be0079c531659141344cd1fd0a4f28419497f9722a3daafe3b4186f6b6457e060405160405180910390a3505050565b600080611359611bc7565b90508060000160008473ffffffffffffffffffffffffffffffffffffffff1673ffffffffffffffffffffffffffffffffffffffff16815260200190815260200160002054915050919050565b60007fa16a46d94261c7517cc8ff89f61c0ce93598e3c849801011dee649a6a557d100905090565b606060006113d96113a5565b90508060020180546113ea906127d1565b80601f0160208091040260200160405190810160405280929190818152602001828054611416906127d1565b80156114635780601f1061143857610100808354040283529160200191611463565b820191906000526020600020905b81548152906001019060200180831161144657829003601f168201915b505050505091505090565b6060600061147a6113a5565b905080600301805461148b906127d1565b80601f01602080910402602001604051908101604052809291908181526020018280546114b7906127d1565b80156115045780601f106114d957610100808354040283529160200191611504565b820191906000526020600020905b8154815290600101906020018083116114e757829003601f168201915b505050505091505090565b60007f9016d09d72d40fdae2fd8ceac6b6234c7706214fd39c1cd1e609a0528c199300905090565b600080611542611bc7565b90508060000160008473ffffffffffffffffffffffffffffffffffffffff1673ffffffffffffffffffffffffffffffffffffffff168152602001908152602001600020600081548092919060010191905055915050919050565b60006115af6115a9611041565b83611bef565b9050919050565b6000806000806115c888888888611c30565b9250925092506115d88282611d24565b829350505050949350505050565b60006115f0610e77565b9050600073ffffffffffffffffffffffffffffffffffffffff168573ffffffffffffffffffffffffffffffffffffffff16036116645760006040517fe602df0500000000000000000000000000000000000000000000000000000000815260040161165b9190612679565b60405180910390fd5b600073ffffffffffffffffffffffffffffffffffffffff168473ffffffffffffffffffffffffffffffffffffffff16036116d65760006040517f94280d620000000000000000000000000000000000000000000000000000000081526004016116cd9190612679565b60405180910390fd5b828160010160008773ffffffffffffffffffffffffffffffffffffffff1673ffffffffffffffffffffffffffffffffffffffff16815260200190815260200160002060008673ffffffffffffffffffffffffffffffffffffffff1673ffffffffffffffffffffffffffffffffffffffff1681526020019081526020016000208190555081156117c5578373ffffffffffffffffffffffffffffffffffffffff168573ffffffffffffffffffffffffffffffffffffffff167f8c5be1e5ebec7d5bd14f71427d1e84f3dd0314c0f7b2291e5b200ac8c7c3b925856040516117bc919061217f565b60405180910390a35b5050505050565b60006117d6610e77565b9050600073ffffffffffffffffffffffffffffffffffffffff168473ffffffffffffffffffffffffffffffffffffffff160361182c57818160020160008282546118209190612cfe565b92505081905550611905565b60008160000160008673ffffffffffffffffffffffffffffffffffffffff1673ffffffffffffffffffffffffffffffffffffffff168152602001908152602001600020549050828110156118bb578481846040517fe450d38c0000000000000000000000000000000000000000000000000000000081526004016118b293929190612cc7565b60405180910390fd5b8281038260000160008773ffffffffffffffffffffffffffffffffffffffff1673ffffffffffffffffffffffffffffffffffffffff16815260200190815260200160002081905550505b600073ffffffffffffffffffffffffffffffffffffffff168373ffffffffffffffffffffffffffffffffffffffff1603611950578181600201600082825403925050819055506119a0565b818160000160008573ffffffffffffffffffffffffffffffffffffffff1673ffffffffffffffffffffffffffffffffffffffff168152602001908152602001600020600082825401925050819055505b8273ffffffffffffffffffffffffffffffffffffffff168473ffffffffffffffffffffffffffffffffffffffff167fddf252ad1be2c89b69c2b068fc378daa952ba7f163c4a11628f55a4df523b3ef846040516119fd919061217f565b60405180910390a350505050565b60007f8b73c3c69bb8fe3d512ecc4cf759cc79239f7b179b0ffacaa9a75d522b39400f611a36611e88565b611a3e611f04565b4630604051602001611a54959493929190612d32565b60405160208183030381529060405280519060200120905090565b611a77611f80565b611aad576040517fd7e6bcf800000000000000000000000000000000000000000000000000000000815260040160405180910390fd5b565b611ab7611a6f565b6000611ac1610e77565b905082816003019081611ad49190612f27565b5081816004019081611ae69190612f27565b50505050565b611af4611a6f565b6000611afe6113a5565b905082816002019081611b119190612f27565b5081816003019081611b239190612f27565b506000801b81600001819055506000801b8160010181905550505050565b611b49611a6f565b600073ffffffffffffffffffffffffffffffffffffffff168173ffffffffffffffffffffffffffffffffffffffff1603611bbb5760006040517f1e4fbdf7000000000000000000000000000000000000000000000000000000008152600401611bb29190612679565b60405180910390fd5b611bc481611277565b50565b60007f5ab42ced628888259c08ac98db1eb0cf702fc1501344311d8b100cd1bfe4bb00905090565b60006040517f190100000000000000000000000000000000000000000000000000000000000081528360028201528260228201526042812091505092915050565b60008060007f7fffffffffffffffffffffffffffffff5d576e7357a4501ddfe92f46681b20a08460001c1115611c70576000600385925092509250611d1a565b600060018888888860405160008152602001604052604051611c959493929190612ff9565b6020604051602081039080840390855afa158015611cb7573d6000803e3d6000fd5b505050602060405103519050600073ffffffffffffffffffffffffffffffffffffffff168173ffffffffffffffffffffffffffffffffffffffff1603611d0b57600060016000801b93509350935050611d1a565b8060008060001b935093509350505b9450945094915050565b60006003811115611d3857611d3761303e565b5b826003811115611d4b57611d4a61303e565b5b0315611e845760016003811115611d6557611d6461303e565b5b826003811115611d7857611d7761303e565b5b03611daf576040517ff645eedf00000000000000000000000000000000000000000000000000000000815260040160405180910390fd5b60026003811115611dc357611dc261303e565b5b826003811115611dd657611dd561303e565b5b03611e1b578060001c6040517ffce698f7000000000000000000000000000000000000000000000000000000008152600401611e12919061217f565b60405180910390fd5b600380811115611e2e57611e2d61303e565b5b826003811115611e4157611e4061303e565b5b03611e8357806040517fd78bce0c000000000000000000000000000000000000000000000000000000008152600401611e7a919061223d565b60405180910390fd5b5b5050565b600080611e936113a5565b90506000611e9f6113cd565b9050600081511115611ebc57808051906020012092505050611f01565b6000826000015490506000801b8114611eda57809350505050611f01565b7fc5d2460186f7233c927e7db2dcc703c0e500b653ca82273b7bfad8045d85a47093505050505b90565b600080611f0f6113a5565b90506000611f1b61146e565b9050600081511115611f3857808051906020012092505050611f7d565b6000826001015490506000801b8114611f5657809350505050611f7d565b7fc5d2460186f7233c927e7db2dcc703c0e500b653ca82273b7bfad8045d85a47093505050505b90565b6000611f8a611050565b60000160089054906101000a900460ff16905090565b600081519050919050565b600082825260208201905092915050565b60005b83811015611fda578082015181840152602081019050611fbf565b60008484015250505050565b6000601f19601f8301169050919050565b600061200282611fa0565b61200c8185611fab565b935061201c818560208601611fbc565b61202581611fe6565b840191505092915050565b6000602082019050818103600083015261204a8184611ff7565b905092915050565b6000604051905090565b600080fd5b600080fd5b600073ffffffffffffffffffffffffffffffffffffffff82169050919050565b600061209182612066565b9050919050565b6120a181612086565b81146120ac57600080fd5b50565b6000813590506120be81612098565b92915050565b6000819050919050565b6120d7816120c4565b81146120e257600080fd5b50565b6000813590506120f4816120ce565b92915050565b600080604083850312156121115761211061205c565b5b600061211f858286016120af565b9250506020612130858286016120e5565b9150509250929050565b60008115159050919050565b61214f8161213a565b82525050565b600060208201905061216a6000830184612146565b92915050565b612179816120c4565b82525050565b60006020820190506121946000830184612170565b92915050565b6000806000606084860312156121b3576121b261205c565b5b60006121c1868287016120af565b93505060206121d2868287016120af565b92505060406121e3868287016120e5565b9150509250925092565b600060ff82169050919050565b612203816121ed565b82525050565b600060208201905061221e60008301846121fa565b92915050565b6000819050919050565b61223781612224565b82525050565b6000602082019050612252600083018461222e565b92915050565b600080fd5b600080fd5b7f4e487b7100000000000000000000000000000000000000000000000000000000600052604160045260246000fd5b61229a82611fe6565b810181811067ffffffffffffffff821117156122b9576122b8612262565b5b80604052505050565b60006122cc612052565b90506122d88282612291565b919050565b600067ffffffffffffffff8211156122f8576122f7612262565b5b61230182611fe6565b9050602081019050919050565b82818337600083830152505050565b600061233061232b846122dd565b6122c2565b90508281526020810184848401111561234c5761234b61225d565b5b61235784828561230e565b509392505050565b600082601f83011261237457612373612258565b5b813561238484826020860161231d565b91505092915050565b612396816121ed565b81146123a157600080fd5b50565b6000813590506123b38161238d565b92915050565b600080600080600080600060e0888a0312156123d8576123d761205c565b5b60006123e68a828b016120af565b97505060206123f78a828b016120e5565b965050604088013567ffffffffffffffff81111561241857612417612061565b5b6124248a828b0161235f565b955050606088013567ffffffffffffffff81111561244557612444612061565b5b6124518a828b0161235f565b94505060806124628a828b016123a4565b93505060a06124738a828b016120e5565b92505060c06124848a828b016120e5565b91505092959891949750929550565b6000602082840312156124a9576124a861205c565b5b60006124b7848285016120e5565b91505092915050565b6000602082840312156124d6576124d561205c565b5b60006124e4848285016120af565b91505092915050565b60007fff0000000000000000000000000000000000000000000000000000000000000082169050919050565b612522816124ed565b82525050565b61253181612086565b82525050565b600081519050919050565b600082825260208201905092915050565b6000819050602082019050919050565b61256c816120c4565b82525050565b600061257e8383612563565b60208301905092915050565b6000602082019050919050565b60006125a282612537565b6125ac8185612542565b93506125b783612553565b8060005b838110156125e85781516125cf8882612572565b97506125da8361258a565b9250506001810190506125bb565b5085935050505092915050565b600060e08201905061260a600083018a612519565b818103602083015261261c8189611ff7565b905081810360408301526126308188611ff7565b905061263f6060830187612170565b61264c6080830186612528565b61265960a083018561222e565b81810360c083015261266b8184612597565b905098975050505050505050565b600060208201905061268e6000830184612528565b92915050565b61269d81612224565b81146126a857600080fd5b50565b6000813590506126ba81612694565b92915050565b600080600080600080600060e0888a0312156126df576126de61205c565b5b60006126ed8a828b016120af565b97505060206126fe8a828b016120af565b965050604061270f8a828b016120e5565b95505060606127208a828b016120e5565b94505060806127318a828b016123a4565b93505060a06127428a828b016126ab565b92505060c06127538a828b016126ab565b91505092959891949750929550565b600080604083850312156127795761277861205c565b5b6000612787858286016120af565b9250506020612798858286016120af565b9150509250929050565b7f4e487b7100000000000000000000000000000000000000000000000000000000600052602260045260246000fd5b600060028204905060018216806127e957607f821691505b6020821081036127fc576127fb6127a2565b5b50919050565b7f4e487b7100000000000000000000000000000000000000000000000000000000600052601160045260246000fd5b60008160011c9050919050565b6000808291508390505b60018511156128885780860481111561286457612863612802565b5b60018516156128735780820291505b808102905061288185612831565b9450612848565b94509492505050565b6000826128a1576001905061295d565b816128af576000905061295d565b81600181146128c557600281146128cf576128fe565b600191505061295d565b60ff8411156128e1576128e0612802565b5b8360020a9150848211156128f8576128f7612802565b5b5061295d565b5060208310610133831016604e8410600b84101617156129335782820a90508381111561292e5761292d612802565b5b61295d565b612940848484600161283e565b9250905081840481111561295757612956612802565b5b81810290505b9392505050565b600061296f826120c4565b915061297a836121ed565b92506129a77fffffffffffffffffffffffffffffffffffffffffffffffffffffffffffffffff8484612891565b905092915050565b60006129ba826120c4565b91506129c5836120c4565b92508282026129d3816120c4565b915082820484148315176129ea576129e9612802565b5b5092915050565b7f54524144455f4255524e5f524154494f5f494e56414c49440000000000000000600082015250565b6000612a27601883611fab565b9150612a32826129f1565b602082019050919050565b60006020820190508181036000830152612a5681612a1a565b9050919050565b7f54524144455f4645455f524154494f5f494e56414c4944000000000000000000600082015250565b6000612a93601783611fab565b9150612a9e82612a5d565b602082019050919050565b60006020820190508181036000830152612ac281612a86565b9050919050565b6000819050919050565b600067ffffffffffffffff82169050919050565b6000819050919050565b6000612b0c612b07612b0284612ac9565b612ae7565b612ad3565b9050919050565b612b1c81612af1565b82525050565b6000602082019050612b376000830184612b13565b92915050565b7f4549503731323a20556e696e697469616c697a65640000000000000000000000600082015250565b6000612b73601583611fab565b9150612b7e82612b3d565b602082019050919050565b60006020820190508181036000830152612ba281612b66565b9050919050565b7f4e487b7100000000000000000000000000000000000000000000000000000000600052601260045260246000fd5b6000612be3826120c4565b9150612bee836120c4565b925082612bfe57612bfd612ba9565b5b828204905092915050565b6000612c14826120c4565b9150612c1f836120c4565b9250828203905081811115612c3757612c36612802565b5b92915050565b600060c082019050612c52600083018961222e565b612c5f6020830188612528565b612c6c6040830187612528565b612c796060830186612170565b612c866080830185612170565b612c9360a0830184612170565b979650505050505050565b6000604082019050612cb36000830185612528565b612cc06020830184612528565b9392505050565b6000606082019050612cdc6000830186612528565b612ce96020830185612170565b612cf66040830184612170565b949350505050565b6000612d09826120c4565b9150612d14836120c4565b9250828201905080821115612d2c57612d2b612802565b5b92915050565b600060a082019050612d47600083018861222e565b612d54602083018761222e565b612d61604083018661222e565b612d6e6060830185612170565b612d7b6080830184612528565b9695505050505050565b60008190508160005260206000209050919050565b60006020601f8301049050919050565b600082821b905092915050565b600060088302612de77fffffffffffffffffffffffffffffffffffffffffffffffffffffffffffffffff82612daa565b612df18683612daa565b95508019841693508086168417925050509392505050565b6000612e24612e1f612e1a846120c4565b612ae7565b6120c4565b9050919050565b6000819050919050565b612e3e83612e09565b612e52612e4a82612e2b565b848454612db7565b825550505050565b600090565b612e67612e5a565b612e72818484612e35565b505050565b5b81811015612e9657612e8b600082612e5f565b600181019050612e78565b5050565b601f821115612edb57612eac81612d85565b612eb584612d9a565b81016020851015612ec4578190505b612ed8612ed085612d9a565b830182612e77565b50505b505050565b600082821c905092915050565b6000612efe60001984600802612ee0565b1980831691505092915050565b6000612f178383612eed565b9150826002028217905092915050565b612f3082611fa0565b67ffffffffffffffff811115612f4957612f48612262565b5b612f5382546127d1565b612f5e828285612e9a565b600060209050601f831160018114612f915760008415612f7f578287015190505b612f898582612f0b565b865550612ff1565b601f198416612f9f86612d85565b60005b82811015612fc757848901518255600182019150602085019450602081019050612fa2565b86831015612fe45784890151612fe0601f891682612eed565b8355505b6001600288020188555050505b505050505050565b600060808201905061300e600083018761222e565b61301b60208301866121fa565b613028604083018561222e565b613035606083018461222e565b95945050505050565b7f4e487b7100000000000000000000000000000000000000000000000000000000600052602160045260246000fdfea26469706673582212200a1f6c74c7d486762a1fe93a497472d5f294e236ddcdc86ddf54a91d17b2e4f564736f6c63430008190033",
  "linkReferences": {},
  "deployedLinkReferences": {}
}