{
  "_format": "hh-sol-artifact-1",
  "contractName": "CustomLiquidityToken",
  "sourceName": "contracts/MyToken.sol",
  "abi": [
    {
      "inputs": [],
      "stateMutability": "nonpayable",
      "type": "constructor"
    },
    {
      "inputs": [],
      "name": "ECDSAInvalidSignature",
      "type": "error"
    },
    {
      "inputs": [
        {
          "internalType": "uint256",
          "name": "length",
          "type": "uint256"
        }
      ],
      "name": "ECDSAInvalidSignatureLength",
      "type": "error"
    },
    {
      "inputs": [
        {
          "internalType": "bytes32",
          "name": "s",
          "type": "bytes32"
        }
      ],
      "name": "ECDSAInvalidSignatureS",
      "type": "error"
    },
    {
      "inputs": [
        {
          "internalType": "address",
          "name": "spender",
          "type": "address"
        },
        {
          "internalType": "uint256",
          "name": "allowance",
          "type": "uint256"
        },
        {
          "internalType": "uint256",
          "name": "needed",
          "type": "uint256"
        }
      ],
      "name": "ERC20InsufficientAllowance",
      "type": "error"
    },
    {
      "inputs": [
        {
          "internalType": "address",
          "name": "sender",
          "type": "address"
        },
        {
          "internalType": "uint256",
          "name": "balance",
          "type": "uint256"
        },
        {
          "internalType": "uint256",
          "name": "needed",
          "type": "uint256"
        }
      ],
      "name": "ERC20InsufficientBalance",
      "type": "error"
    },
    {
      "inputs": [
        {
          "internalType": "address",
          "name": "approver",
          "type": "address"
        }
      ],
      "name": "ERC20InvalidApprover",
      "type": "error"
    },
    {
      "inputs": [
        {
          "internalType": "address",
          "name": "receiver",
          "type": "address"
        }
      ],
      "name": "ERC20InvalidReceiver",
      "type": "error"
    },
    {
      "inputs": [
        {
          "internalType": "address",
          "name": "sender",
          "type": "address"
        }
      ],
      "name": "ERC20InvalidSender",
      "type": "error"
    },
    {
      "inputs": [
        {
          "internalType": "address",
          "name": "spender",
          "type": "address"
        }
      ],
      "name": "ERC20InvalidSpender",
      "type": "error"
    },
    {
      "inputs": [
        {
          "internalType": "uint256",
          "name": "deadline",
          "type": "uint256"
        }
      ],
      "name": "ERC2612ExpiredSignature",
      "type": "error"
    },
    {
      "inputs": [
        {
          "internalType": "address",
          "name": "signer",
          "type": "address"
        },
        {
          "internalType": "address",
          "name": "owner",
          "type": "address"
        }
      ],
      "name": "ERC2612InvalidSigner",
      "type": "error"
    },
    {
      "inputs": [
        {
          "internalType": "address",
          "name": "account",
          "type": "address"
        },
        {
          "internalType": "uint256",
          "name": "currentNonce",
          "type": "uint256"
        }
      ],
      "name": "InvalidAccountNonce",
      "type": "error"
    },
    {
      "inputs": [],
      "name": "InvalidInitialization",
      "type": "error"
    },
    {
      "inputs": [],
      "name": "NotInitializing",
      "type": "error"
    },
    {
      "inputs": [
        {
          "internalType": "address",
          "name": "owner",
          "type": "address"
        }
      ],
      "name": "OwnableInvalidOwner",
      "type": "error"
    },
    {
      "inputs": [
        {
          "internalType": "address",
          "name": "account",
          "type": "address"
        }
      ],
      "name": "OwnableUnauthorizedAccount",
      "type": "error"
    },
    {
      "anonymous": false,
      "inputs": [
        {
          "indexed": true,
          "internalType": "address",
          "name": "owner",
          "type": "address"
        },
        {
          "indexed": true,
          "internalType": "address",
          "name": "spender",
          "type": "address"
        },
        {
          "indexed": false,
          "internalType": "uint256",
          "name": "value",
          "type": "uint256"
        }
      ],
      "name": "Approval",
      "type": "event"
    },
    {
      "anonymous": false,
      "inputs": [],
      "name": "EIP712DomainChanged",
      "type": "event"
    },
    {
      "anonymous": false,
      "inputs": [
        {
          "indexed": false,
          "internalType": "uint64",
          "name": "version",
          "type": "uint64"
        }
      ],
      "name": "Initialized",
      "type": "event"
    },
    {
      "anonymous": false,
      "inputs": [
        {
          "indexed": true,
          "internalType": "address",
          "name": "previousOwner",
          "type": "address"
        },
        {
          "indexed": true,
          "internalType": "address",
          "name": "newOwner",
          "type": "address"
        }
      ],
      "name": "OwnershipTransferred",
      "type": "event"
    },
    {
      "anonymous": false,
      "inputs": [
        {
          "indexed": true,
          "internalType": "address",
          "name": "from",
          "type": "address"
        },
        {
          "indexed": true,
          "internalType": "address",
          "name": "to",
          "type": "address"
        },
        {
          "indexed": false,
          "internalType": "uint256",
          "name": "value",
          "type": "uint256"
        }
      ],
      "name": "Transfer",
      "type": "event"
    },
    {
      "inputs": [],
      "name": "DOMAIN_SEPARATOR",
      "outputs": [
        {
          "internalType": "bytes32",
          "name": "",
          "type": "bytes32"
        }
      ],
      "stateMutability": "view",
      "type": "function"
    },
    {
      "inputs": [
        {
          "internalType": "uint256",
          "name": "tokenAmount",
          "type": "uint256"
        },
        {
          "internalType": "uint256",
          "name": "ethAmount",
          "type": "uint256"
        }
      ],
      "name": "addLiquidity",
      "outputs": [],
      "stateMutability": "payable",
      "type": "function"
    },
    {
      "inputs": [
        {
          "internalType": "address",
          "name": "owner",
          "type": "address"
        },
        {
          "internalType": "address",
          "name": "spender",
          "type": "address"
        }
      ],
      "name": "allowance",
      "outputs": [
        {
          "internalType": "uint256",
          "name": "",
          "type": "uint256"
        }
      ],
      "stateMutability": "view",
      "type": "function"
    },
    {
      "inputs": [
        {
          "internalType": "address",
          "name": "spender",
          "type": "address"
        },
        {
          "internalType": "uint256",
          "name": "value",
          "type": "uint256"
        }
      ],
      "name": "approve",
      "outputs": [
        {
          "internalType": "bool",
          "name": "",
          "type": "bool"
        }
      ],
      "stateMutability": "nonpayable",
      "type": "function"
    },
    {
      "inputs": [
        {
          "internalType": "address",
          "name": "account",
          "type": "address"
        }
      ],
      "name": "balanceOf",
      "outputs": [
        {
          "internalType": "uint256",
          "name": "",
          "type": "uint256"
        }
      ],
      "stateMutability": "view",
      "type": "function"
    },
    {
      "inputs": [
        {
          "internalType": "uint256",
          "name": "value",
          "type": "uint256"
        }
      ],
      "name": "burn",
      "outputs": [],
      "stateMutability": "nonpayable",
      "type": "function"
    },
    {
      "inputs": [
        {
          "internalType": "address",
          "name": "account",
          "type": "address"
        },
        {
          "internalType": "uint256",
          "name": "value",
          "type": "uint256"
        }
      ],
      "name": "burnFrom",
      "outputs": [],
      "stateMutability": "nonpayable",
      "type": "function"
    },
    {
      "inputs": [],
      "name": "checkBot",
      "outputs": [
        {
          "internalType": "bool",
          "name": "",
          "type": "bool"
        }
      ],
      "stateMutability": "view",
      "type": "function"
    },
    {
      "inputs": [],
      "name": "claimVestedTokens",
      "outputs": [],
      "stateMutability": "nonpayable",
      "type": "function"
    },
    {
      "inputs": [],
      "name": "decimals",
      "outputs": [
        {
          "internalType": "uint8",
          "name": "",
          "type": "uint8"
        }
      ],
      "stateMutability": "view",
      "type": "function"
    },
    {
      "inputs": [],
      "name": "eip712Domain",
      "outputs": [
        {
          "internalType": "bytes1",
          "name": "fields",
          "type": "bytes1"
        },
        {
          "internalType": "string",
          "name": "name",
          "type": "string"
        },
        {
          "internalType": "string",
          "name": "version",
          "type": "string"
        },
        {
          "internalType": "uint256",
          "name": "chainId",
          "type": "uint256"
        },
        {
          "internalType": "address",
          "name": "verifyingContract",
          "type": "address"
        },
        {
          "internalType": "bytes32",
          "name": "salt",
          "type": "bytes32"
        },
        {
          "internalType": "uint256[]",
          "name": "extensions",
          "type": "uint256[]"
        }
      ],
      "stateMutability": "view",
      "type": "function"
    },
    {
      "inputs": [
        {
          "internalType": "address",
          "name": "initialOwner",
          "type": "address"
        },
        {
          "internalType": "uint256",
          "name": "_totalSupply",
          "type": "uint256"
        },
        {
          "internalType": "string",
          "name": "name",
          "type": "string"
        },
        {
          "internalType": "string",
          "name": "symbol",
          "type": "string"
        },
        {
          "internalType": "uint256",
          "name": "decimals",
          "type": "uint256"
        },
        {
          "internalType": "address",
          "name": "_teamAddress",
          "type": "address"
        },
        {
          "internalType": "uint256[]",
          "name": "ratio",
          "type": "uint256[]"
        }
      ],
      "name": "init",
      "outputs": [],
      "stateMutability": "nonpayable",
      "type": "function"
    },
    {
      "inputs": [],
      "name": "name",
      "outputs": [
        {
          "internalType": "string",
          "name": "",
          "type": "string"
        }
      ],
      "stateMutability": "view",
      "type": "function"
    },
    {
      "inputs": [
        {
          "internalType": "address",
          "name": "owner",
          "type": "address"
        }
      ],
      "name": "nonces",
      "outputs": [
        {
          "internalType": "uint256",
          "name": "",
          "type": "uint256"
        }
      ],
      "stateMutability": "view",
      "type": "function"
    },
    {
      "inputs": [],
      "name": "owner",
      "outputs": [
        {
          "internalType": "address",
          "name": "",
          "type": "address"
        }
      ],
      "stateMutability": "view",
      "type": "function"
    },
    {
      "inputs": [
        {
          "internalType": "address",
          "name": "owner",
          "type": "address"
        },
        {
          "internalType": "address",
          "name": "spender",
          "type": "address"
        },
        {
          "internalType": "uint256",
          "name": "value",
          "type": "uint256"
        },
        {
          "internalType": "uint256",
          "name": "deadline",
          "type": "uint256"
        },
        {
          "internalType": "uint8",
          "name": "v",
          "type": "uint8"
        },
        {
          "internalType": "bytes32",
          "name": "r",
          "type": "bytes32"
        },
        {
          "internalType": "bytes32",
          "name": "s",
          "type": "bytes32"
        }
      ],
      "name": "permit",
      "outputs": [],
      "stateMutability": "nonpayable",
      "type": "function"
    },
    {
      "inputs": [
        {
          "internalType": "uint256",
          "name": "liquidity",
          "type": "uint256"
        }
      ],
      "name": "removeLiquidity",
      "outputs": [],
      "stateMutability": "nonpayable",
      "type": "function"
    },
    {
      "inputs": [
        {
          "internalType": "uint256",
          "name": "liquidity",
          "type": "uint256"
        }
      ],
      "name": "removeLiquidityAndBurnLP",
      "outputs": [],
      "stateMutability": "nonpayable",
      "type": "function"
    },
    {
      "inputs": [],
      "name": "renounceOwnership",
      "outputs": [],
      "stateMutability": "nonpayable",
      "type": "function"
    },
    {
      "inputs": [],
      "name": "symbol",
      "outputs": [
        {
          "internalType": "string",
          "name": "",
          "type": "string"
        }
      ],
      "stateMutability": "view",
      "type": "function"
    },
    {
      "inputs": [],
      "name": "teamAddress",
      "outputs": [
        {
          "internalType": "address",
          "name": "",
          "type": "address"
        }
      ],
      "stateMutability": "view",
      "type": "function"
    },
    {
      "inputs": [],
      "name": "teamAllocation",
      "outputs": [
        {
          "internalType": "uint256",
          "name": "",
          "type": "uint256"
        }
      ],
      "stateMutability": "view",
      "type": "function"
    },
    {
      "inputs": [],
      "name": "totalSupply",
      "outputs": [
        {
          "internalType": "uint256",
          "name": "",
          "type": "uint256"
        }
      ],
      "stateMutability": "view",
      "type": "function"
    },
    {
      "inputs": [],
      "name": "tradeBurnRatio",
      "outputs": [
        {
          "internalType": "uint256",
          "name": "",
          "type": "uint256"
        }
      ],
      "stateMutability": "view",
      "type": "function"
    },
    {
      "inputs": [],
      "name": "tradeFeeRatio",
      "outputs": [
        {
          "internalType": "uint256",
          "name": "",
          "type": "uint256"
        }
      ],
      "stateMutability": "view",
      "type": "function"
    },
    {
      "inputs": [
        {
          "internalType": "address",
          "name": "to",
          "type": "address"
        },
        {
          "internalType": "uint256",
          "name": "value",
          "type": "uint256"
        }
      ],
      "name": "transfer",
      "outputs": [
        {
          "internalType": "bool",
          "name": "",
          "type": "bool"
        }
      ],
      "stateMutability": "nonpayable",
      "type": "function"
    },
    {
      "inputs": [
        {
          "internalType": "address",
          "name": "from",
          "type": "address"
        },
        {
          "internalType": "address",
          "name": "to",
          "type": "address"
        },
        {
          "internalType": "uint256",
          "name": "value",
          "type": "uint256"
        }
      ],
      "name": "transferFrom",
      "outputs": [
        {
          "internalType": "bool",
          "name": "",
          "type": "bool"
        }
      ],
      "stateMutability": "nonpayable",
      "type": "function"
    },
    {
      "inputs": [
        {
          "internalType": "address",
          "name": "newOwner",
          "type": "address"
        }
      ],
      "name": "transferOwnership",
      "outputs": [],
      "stateMutability": "nonpayable",
      "type": "function"
    },
    {
      "inputs": [],
      "name": "uniswapPair",
      "outputs": [
        {
          "internalType": "contract IUniswapV2Pair",
          "name": "",
          "type": "address"
        }
      ],
      "stateMutability": "view",
      "type": "function"
    },
    {
      "inputs": [],
      "name": "uniswapRouter",
      "outputs": [
        {
          "internalType": "contract IUniswapV2Router02",
          "name": "",
          "type": "address"
        }
      ],
      "stateMutability": "view",
      "type": "function"
    },
    {
      "inputs": [
        {
          "internalType": "uint256",
          "name": "_ratio",
          "type": "uint256"
        }
      ],
      "name": "updateBurnRatio",
      "outputs": [],
      "stateMutability": "nonpayable",
      "type": "function"
    },
    {
      "inputs": [
        {
          "internalType": "uint256",
          "name": "_fee",
          "type": "uint256"
        }
      ],
      "name": "updateFee",
      "outputs": [],
      "stateMutability": "nonpayable",
      "type": "function"
    },
    {
      "inputs": [
        {
          "internalType": "address",
          "name": "",
          "type": "address"
        }
      ],
      "name": "vestingSchedules",
      "outputs": [
        {
          "internalType": "uint256",
          "name": "totalAmount",
          "type": "uint256"
        },
        {
          "internalType": "uint256",
          "name": "amountClaimed",
          "type": "uint256"
        },
        {
          "internalType": "uint256",
          "name": "vestingStart",
          "type": "uint256"
        },
        {
          "internalType": "uint256",
          "name": "vestingDuration",
          "type": "uint256"
        },
        {
          "internalType": "uint256",
          "name": "lastClaimed",
          "type": "uint256"
        },
        {
          "internalType": "bool",
          "name": "isActive",
          "type": "bool"
        }
      ],
      "stateMutability": "view",
      "type": "function"
    }
  ],
  "bytecode": "0x608060405260018060006101000a81548160ff02191690831515021790555034801561002a57600080fd5b5061003961003e60201b60201c565b6101a8565b600061004e61014260201b60201c565b90508060000160089054906101000a900460ff1615610099576040517ff92ee8a900000000000000000000000000000000000000000000000000000000815260040160405180910390fd5b67ffffffffffffffff80168160000160009054906101000a900467ffffffffffffffff1667ffffffffffffffff161461013f5767ffffffffffffffff8160000160006101000a81548167ffffffffffffffff021916908367ffffffffffffffff1602179055507fc7f505b2f371ae2175ee4913f4499e1f2633a7b5936321eed1cdaeb6115181d267ffffffffffffffff604051610136919061018d565b60405180910390a15b50565b60007ff0c57e16840df040f15088dc2f81fe391c3923bec73e23a9662efc9c229c6a00905090565b600067ffffffffffffffff82169050919050565b6101878161016a565b82525050565b60006020820190506101a2600083018461017e565b92915050565b6147f5806101b76000396000f3fe6080604052600436106101ee5760003560e01c806384b0196e1161010d578063ad3611cd116100a0578063e59850f71161006f578063e59850f7146106e8578063e74f3fbb14610713578063e95ee3371461072a578063f2fde38b14610753578063fdb20ccb1461077c576101ee565b8063ad3611cd1461062e578063c816841b14610657578063d505accf14610682578063dd62ed3e146106ab576101ee565b806395d89b41116100dc57806395d89b41146105815780639c8f9f23146105ac5780639cd441da146105d5578063a9059cbb146105f1576101ee565b806384b0196e146104d1578063870c66d6146105025780638da5cb5b1461052d5780639012c4a814610558576101ee565b806342966c6811610185578063715018a611610154578063715018a614610429578063735de9f71461044057806379cc67901461046b5780637ecebe0014610494576101ee565b806342966c681461036d57806361b188d1146103965780636816521a146103c157806370a08231146103ec576101ee565b80631c75f085116101c15780631c75f085146102af57806323b872dd146102da578063313ce567146103175780633644e51514610342576101ee565b8063058fe99f146101f357806306fdde031461021c578063095ea7b31461024757806318160ddd14610284575b600080fd5b3480156101ff57600080fd5b5061021a6004803603810190610215919061320c565b6107be565b005b34801561022857600080fd5b50610231610c5d565b60405161023e9190613381565b60405180910390f35b34801561025357600080fd5b5061026e600480360381019061026991906133a3565b610cfe565b60405161027b91906133fe565b60405180910390f35b34801561029057600080fd5b50610299610d21565b6040516102a69190613428565b60405180910390f35b3480156102bb57600080fd5b506102c4610d39565b6040516102d19190613452565b60405180910390f35b3480156102e657600080fd5b5061030160048036038101906102fc919061346d565b610d5f565b60405161030e91906133fe565b60405180910390f35b34801561032357600080fd5b5061032c610d8e565b60405161033991906134dc565b60405180910390f35b34801561034e57600080fd5b50610357610d97565b6040516103649190613510565b60405180910390f35b34801561037957600080fd5b50610394600480360381019061038f919061352b565b610da6565b005b3480156103a257600080fd5b506103ab610dba565b6040516103b891906133fe565b60405180910390f35b3480156103cd57600080fd5b506103d6610dcd565b6040516103e39190613428565b60405180910390f35b3480156103f857600080fd5b50610413600480360381019061040e9190613558565b610dd3565b6040516104209190613428565b60405180910390f35b34801561043557600080fd5b5061043e610e2a565b005b34801561044c57600080fd5b50610455610e3e565b60405161046291906135e4565b60405180910390f35b34801561047757600080fd5b50610492600480360381019061048d91906133a3565b610e64565b005b3480156104a057600080fd5b506104bb60048036038101906104b69190613558565b610e84565b6040516104c89190613428565b60405180910390f35b3480156104dd57600080fd5b506104e6610e96565b6040516104f997969594939291906136f8565b60405180910390f35b34801561050e57600080fd5b50610517610fa8565b6040516105249190613428565b60405180910390f35b34801561053957600080fd5b50610542610fae565b60405161054f9190613452565b60405180910390f35b34801561056457600080fd5b5061057f600480360381019061057a919061352b565b610fe6565b005b34801561058d57600080fd5b5061059661104a565b6040516105a39190613381565b60405180910390f35b3480156105b857600080fd5b506105d360048036038101906105ce919061352b565b6110eb565b005b6105ef60048036038101906105ea919061377c565b6111a5565b005b3480156105fd57600080fd5b50610618600480360381019061061391906133a3565b611297565b60405161062591906133fe565b60405180910390f35b34801561063a57600080fd5b506106556004803603810190610650919061352b565b61134a565b005b34801561066357600080fd5b5061066c6113ae565b60405161067991906137dd565b60405180910390f35b34801561068e57600080fd5b506106a960048036038101906106a49190613850565b6113d4565b005b3480156106b757600080fd5b506106d260048036038101906106cd91906138f2565b61151c565b6040516106df9190613428565b60405180910390f35b3480156106f457600080fd5b506106fd6115b1565b60405161070a9190613428565b60405180910390f35b34801561071f57600080fd5b506107286115b7565b005b34801561073657600080fd5b50610751600480360381019061074c919061352b565b611795565b005b34801561075f57600080fd5b5061077a60048036038101906107759190613558565b611c7b565b005b34801561078857600080fd5b506107a3600480360381019061079e9190613558565b611d01565b6040516107b596959493929190613932565b60405180910390f35b60006107c8611d4a565b905060008160000160089054906101000a900460ff1615905060008260000160009054906101000a900467ffffffffffffffff1690506000808267ffffffffffffffff161480156108165750825b9050600060018367ffffffffffffffff1614801561084b575060003073ffffffffffffffffffffffffffffffffffffffff163b145b905081158015610859575080155b15610890576040517ff92ee8a900000000000000000000000000000000000000000000000000000000815260040160405180910390fd5b60018560000160006101000a81548167ffffffffffffffff021916908367ffffffffffffffff16021790555083156108e05760018560000160086101000a81548160ff0219169083151502179055505b6108ea8a8a611d72565b6108f2611d88565b6108fb8a611d92565b6109048c611ddc565b6109638c89600a6109159190613af5565b60648960028151811061092b5761092a613b40565b5b6020026020010151606461093f9190613b6f565b8f61094a9190613ba3565b6109549190613c14565b61095e9190613ba3565b611df0565b736bded42c6da8fbf0d2ba55b2fa120c5e0c8d7891600360006101000a81548173ffffffffffffffffffffffffffffffffffffffff021916908373ffffffffffffffffffffffffffffffffffffffff16021790555086600560006101000a81548173ffffffffffffffffffffffffffffffffffffffff021916908373ffffffffffffffffffffffffffffffffffffffff160217905550606488600a610a089190613af5565b87600281518110610a1c57610a1b613b40565b5b60200260200101518d610a2f9190613ba3565b610a399190613ba3565b610a439190613c14565b600281905550610a5530600254611df0565b610a9f600560009054906101000a900473ffffffffffffffffffffffffffffffffffffffff1660025488600381518110610a9257610a91613b40565b5b6020026020010151611e72565b600086600081518110610ab557610ab4613b40565b5b602002602001015110158015610ae8575061138886600081518110610add57610adc613b40565b5b602002602001015111155b610b27576040517f08c379a0000000000000000000000000000000000000000000000000000000008152600401610b1e90613c91565b60405180910390fd5b600086600181518110610b3d57610b3c613b40565b5b602002602001015110158015610b70575061138886600181518110610b6557610b64613b40565b5b602002602001015111155b610baf576040517f08c379a0000000000000000000000000000000000000000000000000000000008152600401610ba690613cfd565b60405180910390fd5b85600081518110610bc357610bc2613b40565b5b602002602001015160068190555085600181518110610be557610be4613b40565b5b60200260200101516007819055508315610c4f5760008560000160086101000a81548160ff0219169083151502179055507fc7f505b2f371ae2175ee4913f4499e1f2633a7b5936321eed1cdaeb6115181d26001604051610c469190613d6c565b60405180910390a15b505050505050505050505050565b60606000610c69611f4b565b9050806003018054610c7a90613db6565b80601f0160208091040260200160405190810160405280929190818152602001828054610ca690613db6565b8015610cf35780601f10610cc857610100808354040283529160200191610cf3565b820191906000526020600020905b815481529060010190602001808311610cd657829003601f168201915b505050505091505090565b600080610d09611f73565b9050610d16818585611f7b565b600191505092915050565b600080610d2c611f4b565b9050806002015491505090565b600560009054906101000a900473ffffffffffffffffffffffffffffffffffffffff1681565b600080610d6a611f73565b9050610d77858285611f8d565b610d82858585612021565b60019150509392505050565b60006012905090565b6000610da1612115565b905090565b610db7610db1611f73565b82612124565b50565b600160009054906101000a900460ff1681565b60025481565b600080610dde611f4b565b90508060000160008473ffffffffffffffffffffffffffffffffffffffff1673ffffffffffffffffffffffffffffffffffffffff16815260200190815260200160002054915050919050565b610e326121a6565b610e3c600061222d565b565b600360009054906101000a900473ffffffffffffffffffffffffffffffffffffffff1681565b610e7682610e70611f73565b83611f8d565b610e808282612124565b5050565b6000610e8f82612304565b9050919050565b6000606080600080600060606000610eac61235b565b90506000801b8160000154148015610eca57506000801b8160010154145b610f09576040517f08c379a0000000000000000000000000000000000000000000000000000000008152600401610f0090613e33565b60405180910390fd5b610f11612383565b610f19612424565b46306000801b600067ffffffffffffffff811115610f3a57610f39613019565b5b604051908082528060200260200182016040528015610f685781602001602082028036833780820191505090505b507f0f0000000000000000000000000000000000000000000000000000000000000095949392919097509750975097509750975097505090919293949596565b60075481565b600080610fb96124c5565b90508060000160009054906101000a900473ffffffffffffffffffffffffffffffffffffffff1691505090565b610fee6121a6565b6000811015801561100157506113888111155b611040576040517f08c379a000000000000000000000000000000000000000000000000000000000815260040161103790613cfd565b60405180910390fd5b8060078190555050565b60606000611056611f4b565b905080600401805461106790613db6565b80601f016020809104026020016040519081016040528092919081815260200182805461109390613db6565b80156110e05780601f106110b5576101008083540402835291602001916110e0565b820191906000526020600020905b8154815290600101906020018083116110c357829003601f168201915b505050505091505090565b600360009054906101000a900473ffffffffffffffffffffffffffffffffffffffff1673ffffffffffffffffffffffffffffffffffffffff166302751cec30836000803361012c4261113d9190613e53565b6040518763ffffffff1660e01b815260040161115e96959493929190613ec2565b60408051808303816000875af115801561117c573d6000803e3d6000fd5b505050506040513d601f19601f820116820180604052508101906111a09190613f38565b505050565b6111d230600360009054906101000a900473ffffffffffffffffffffffffffffffffffffffff1684611f7b565b600360009054906101000a900473ffffffffffffffffffffffffffffffffffffffff1673ffffffffffffffffffffffffffffffffffffffff1663f305d71982308560008061121e610fae565b61012c4261122c9190613e53565b6040518863ffffffff1660e01b815260040161124d96959493929190613ec2565b60606040518083038185885af115801561126b573d6000803e3d6000fd5b50505050506040513d601f19601f820116820180604052508101906112909190613f78565b5050505050565b6000806112a2611f73565b9050600080600060065411156112da57612710600654866112c39190613ba3565b6112cd9190613c14565b91506112d98383612124565b5b6000600754111561131657612710600754866112f69190613ba3565b6113009190613c14565b90506113143361130e610fae565b83610d5f565b505b60008183876113259190613b6f565b61132f9190613b6f565b905061133c848883612021565b600194505050505092915050565b6113526121a6565b6000811015801561136557506113888111155b6113a4576040517f08c379a000000000000000000000000000000000000000000000000000000000815260040161139b90613c91565b60405180910390fd5b8060078190555050565b600460009054906101000a900473ffffffffffffffffffffffffffffffffffffffff1681565b8342111561141957836040517f627913020000000000000000000000000000000000000000000000000000000081526004016114109190613428565b60405180910390fd5b60007f6e71edae12b1b97f4d1f60370fef10105fa2faae0126114a169c64845d6126c98888886114488c6124ed565b8960405160200161145e96959493929190613fcb565b604051602081830303815290604052805190602001209050600061148182612552565b905060006114918287878761256c565b90508973ffffffffffffffffffffffffffffffffffffffff168173ffffffffffffffffffffffffffffffffffffffff161461150557808a6040517f4b800e460000000000000000000000000000000000000000000000000000000081526004016114fc92919061402c565b60405180910390fd5b6115108a8a8a611f7b565b50505050505050505050565b600080611527611f4b565b90508060010160008573ffffffffffffffffffffffffffffffffffffffff1673ffffffffffffffffffffffffffffffffffffffff16815260200190815260200160002060008473ffffffffffffffffffffffffffffffffffffffff1673ffffffffffffffffffffffffffffffffffffffff1681526020019081526020016000205491505092915050565b60065481565b6000600860003373ffffffffffffffffffffffffffffffffffffffff1673ffffffffffffffffffffffffffffffffffffffff16815260200190815260200160002090508060050160009054906101000a900460ff1661164b576040517f08c379a0000000000000000000000000000000000000000000000000000000008152600401611642906140c7565b60405180910390fd5b80600201544211611691576040517f08c379a000000000000000000000000000000000000000000000000000000000815260040161168890614133565b60405180910390fd5b60008160040154426116a39190613b6f565b9050600082600301548284600001546116bc9190613ba3565b6116c69190613c14565b90506000811161170b576040517f08c379a0000000000000000000000000000000000000000000000000000000008152600401611702906141c5565b60405180910390fd5b82600001548184600101546117209190613e53565b1115611761576040517f08c379a000000000000000000000000000000000000000000000000000000000815260040161175890614231565b60405180910390fd5b808360010160008282546117759190613e53565b92505081905550428360040181905550611790303383612021565b505050565b600460009054906101000a900473ffffffffffffffffffffffffffffffffffffffff1673ffffffffffffffffffffffffffffffffffffffff166323b872dd3330846040518463ffffffff1660e01b81526004016117f493929190614251565b6020604051808303816000875af1158015611813573d6000803e3d6000fd5b505050506040513d601f19601f8201168201806040525081019061183791906142b4565b50600460009054906101000a900473ffffffffffffffffffffffffffffffffffffffff1673ffffffffffffffffffffffffffffffffffffffff1663095ea7b3600360009054906101000a900473ffffffffffffffffffffffffffffffffffffffff16836040518363ffffffff1660e01b81526004016118b79291906142e1565b6020604051808303816000875af11580156118d6573d6000803e3d6000fd5b505050506040513d601f19601f820116820180604052508101906118fa91906142b4565b50600080600360009054906101000a900473ffffffffffffffffffffffffffffffffffffffff1673ffffffffffffffffffffffffffffffffffffffff1663baa2abde30600360009054906101000a900473ffffffffffffffffffffffffffffffffffffffff1673ffffffffffffffffffffffffffffffffffffffff1663ad5c46486040518163ffffffff1660e01b8152600401602060405180830381865afa1580156119aa573d6000803e3d6000fd5b505050506040513d601f19601f820116820180604052508101906119ce919061431f565b866000803061012c426119e19190613e53565b6040518863ffffffff1660e01b8152600401611a03979695949392919061434c565b60408051808303816000875af1158015611a21573d6000803e3d6000fd5b505050506040513d601f19601f82011682018060405250810190611a459190613f38565b91509150600460009054906101000a900473ffffffffffffffffffffffffffffffffffffffff1673ffffffffffffffffffffffffffffffffffffffff166389afcb44306040518263ffffffff1660e01b8152600401611aa49190613452565b60408051808303816000875af1158015611ac2573d6000803e3d6000fd5b505050506040513d601f19601f82011682018060405250810190611ae69190613f38565b50503073ffffffffffffffffffffffffffffffffffffffff1663a9059cbb33846040518363ffffffff1660e01b8152600401611b239291906142e1565b6020604051808303816000875af1158015611b42573d6000803e3d6000fd5b505050506040513d601f19601f82011682018060405250810190611b6691906142b4565b50600360009054906101000a900473ffffffffffffffffffffffffffffffffffffffff1673ffffffffffffffffffffffffffffffffffffffff1663ad5c46486040518163ffffffff1660e01b8152600401602060405180830381865afa158015611bd4573d6000803e3d6000fd5b505050506040513d601f19601f82011682018060405250810190611bf8919061431f565b73ffffffffffffffffffffffffffffffffffffffff1663a9059cbb33836040518363ffffffff1660e01b8152600401611c329291906142e1565b6020604051808303816000875af1158015611c51573d6000803e3d6000fd5b505050506040513d601f19601f82011682018060405250810190611c7591906142b4565b50505050565b611c836121a6565b600073ffffffffffffffffffffffffffffffffffffffff168173ffffffffffffffffffffffffffffffffffffffff1603611cf55760006040517f1e4fbdf7000000000000000000000000000000000000000000000000000000008152600401611cec9190613452565b60405180910390fd5b611cfe8161222d565b50565b60086020528060005260406000206000915090508060000154908060010154908060020154908060030154908060040154908060050160009054906101000a900460ff16905086565b60007ff0c57e16840df040f15088dc2f81fe391c3923bec73e23a9662efc9c229c6a00905090565b611d7a61259c565b611d8482826125dc565b5050565b611d9061259c565b565b611d9a61259c565b611dd9816040518060400160405280600181526020017f3100000000000000000000000000000000000000000000000000000000000000815250612619565b50565b611de461259c565b611ded8161266e565b50565b600073ffffffffffffffffffffffffffffffffffffffff168273ffffffffffffffffffffffffffffffffffffffff1603611e625760006040517fec442f05000000000000000000000000000000000000000000000000000000008152600401611e599190613452565b60405180910390fd5b611e6e600083836126f4565b5050565b600254821115611eb7576040517f08c379a0000000000000000000000000000000000000000000000000000000008152600401611eae9061442d565b60405180910390fd5b6000600860008573ffffffffffffffffffffffffffffffffffffffff1673ffffffffffffffffffffffffffffffffffffffff16815260200190815260200160002090508281600001819055504281600201819055508181600301819055506000816001018190555042816004018190555060018160050160006101000a81548160ff02191690831515021790555050505050565b60007f52c63247e1f47db19d5ce0460030c497f067ca4cebf71ba98eeadabe20bace00905090565b600033905090565b611f888383836001612933565b505050565b6000611f99848461151c565b90507fffffffffffffffffffffffffffffffffffffffffffffffffffffffffffffffff811461201b578181101561200b578281836040517ffb8f41b20000000000000000000000000000000000000000000000000000000081526004016120029392919061444d565b60405180910390fd5b61201a84848484036000612933565b5b50505050565b600073ffffffffffffffffffffffffffffffffffffffff168373ffffffffffffffffffffffffffffffffffffffff16036120935760006040517f96c6fd1e00000000000000000000000000000000000000000000000000000000815260040161208a9190613452565b60405180910390fd5b600073ffffffffffffffffffffffffffffffffffffffff168273ffffffffffffffffffffffffffffffffffffffff16036121055760006040517fec442f050000000000000000000000000000000000000000000000000000000081526004016120fc9190613452565b60405180910390fd5b6121108383836126f4565b505050565b600061211f612b19565b905090565b600073ffffffffffffffffffffffffffffffffffffffff168273ffffffffffffffffffffffffffffffffffffffff16036121965760006040517f96c6fd1e00000000000000000000000000000000000000000000000000000000815260040161218d9190613452565b60405180910390fd5b6121a2826000836126f4565b5050565b6121ae611f73565b73ffffffffffffffffffffffffffffffffffffffff166121cc610fae565b73ffffffffffffffffffffffffffffffffffffffff161461222b576121ef611f73565b6040517f118cdaa70000000000000000000000000000000000000000000000000000000081526004016122229190613452565b60405180910390fd5b565b60006122376124c5565b905060008160000160009054906101000a900473ffffffffffffffffffffffffffffffffffffffff169050828260000160006101000a81548173ffffffffffffffffffffffffffffffffffffffff021916908373ffffffffffffffffffffffffffffffffffffffff1602179055508273ffffffffffffffffffffffffffffffffffffffff168173ffffffffffffffffffffffffffffffffffffffff167f8be0079c531659141344cd1fd0a4f28419497f9722a3daafe3b4186f6b6457e060405160405180910390a3505050565b60008061230f612b7d565b90508060000160008473ffffffffffffffffffffffffffffffffffffffff1673ffffffffffffffffffffffffffffffffffffffff16815260200190815260200160002054915050919050565b60007fa16a46d94261c7517cc8ff89f61c0ce93598e3c849801011dee649a6a557d100905090565b6060600061238f61235b565b90508060020180546123a090613db6565b80601f01602080910402602001604051908101604052809291908181526020018280546123cc90613db6565b80156124195780601f106123ee57610100808354040283529160200191612419565b820191906000526020600020905b8154815290600101906020018083116123fc57829003601f168201915b505050505091505090565b6060600061243061235b565b905080600301805461244190613db6565b80601f016020809104026020016040519081016040528092919081815260200182805461246d90613db6565b80156124ba5780601f1061248f576101008083540402835291602001916124ba565b820191906000526020600020905b81548152906001019060200180831161249d57829003601f168201915b505050505091505090565b60007f9016d09d72d40fdae2fd8ceac6b6234c7706214fd39c1cd1e609a0528c199300905090565b6000806124f8612b7d565b90508060000160008473ffffffffffffffffffffffffffffffffffffffff1673ffffffffffffffffffffffffffffffffffffffff168152602001908152602001600020600081548092919060010191905055915050919050565b600061256561255f612115565b83612ba5565b9050919050565b60008060008061257e88888888612be6565b92509250925061258e8282612cda565b829350505050949350505050565b6125a4612e3e565b6125da576040517fd7e6bcf800000000000000000000000000000000000000000000000000000000815260040160405180910390fd5b565b6125e461259c565b60006125ee611f4b565b9050828160030190816126019190614626565b50818160040190816126139190614626565b50505050565b61262161259c565b600061262b61235b565b90508281600201908161263e9190614626565b50818160030190816126509190614626565b506000801b81600001819055506000801b8160010181905550505050565b61267661259c565b600073ffffffffffffffffffffffffffffffffffffffff168173ffffffffffffffffffffffffffffffffffffffff16036126e85760006040517f1e4fbdf70000000000000000000000000000000000000000000000000000000081526004016126df9190613452565b60405180910390fd5b6126f18161222d565b50565b60006126fe611f4b565b9050600073ffffffffffffffffffffffffffffffffffffffff168473ffffffffffffffffffffffffffffffffffffffff160361275457818160020160008282546127489190613e53565b9250508190555061282d565b60008160000160008673ffffffffffffffffffffffffffffffffffffffff1673ffffffffffffffffffffffffffffffffffffffff168152602001908152602001600020549050828110156127e3578481846040517fe450d38c0000000000000000000000000000000000000000000000000000000081526004016127da9392919061444d565b60405180910390fd5b8281038260000160008773ffffffffffffffffffffffffffffffffffffffff1673ffffffffffffffffffffffffffffffffffffffff16815260200190815260200160002081905550505b600073ffffffffffffffffffffffffffffffffffffffff168373ffffffffffffffffffffffffffffffffffffffff1603612878578181600201600082825403925050819055506128c8565b818160000160008573ffffffffffffffffffffffffffffffffffffffff1673ffffffffffffffffffffffffffffffffffffffff168152602001908152602001600020600082825401925050819055505b8273ffffffffffffffffffffffffffffffffffffffff168473ffffffffffffffffffffffffffffffffffffffff167fddf252ad1be2c89b69c2b068fc378daa952ba7f163c4a11628f55a4df523b3ef846040516129259190613428565b60405180910390a350505050565b600061293d611f4b565b9050600073ffffffffffffffffffffffffffffffffffffffff168573ffffffffffffffffffffffffffffffffffffffff16036129b15760006040517fe602df050000000000000000000000000000000000000000000000000000000081526004016129a89190613452565b60405180910390fd5b600073ffffffffffffffffffffffffffffffffffffffff168473ffffffffffffffffffffffffffffffffffffffff1603612a235760006040517f94280d62000000000000000000000000000000000000000000000000000000008152600401612a1a9190613452565b60405180910390fd5b828160010160008773ffffffffffffffffffffffffffffffffffffffff1673ffffffffffffffffffffffffffffffffffffffff16815260200190815260200160002060008673ffffffffffffffffffffffffffffffffffffffff1673ffffffffffffffffffffffffffffffffffffffff168152602001908152602001600020819055508115612b12578373ffffffffffffffffffffffffffffffffffffffff168573ffffffffffffffffffffffffffffffffffffffff167f8c5be1e5ebec7d5bd14f71427d1e84f3dd0314c0f7b2291e5b200ac8c7c3b92585604051612b099190613428565b60405180910390a35b5050505050565b60007f8b73c3c69bb8fe3d512ecc4cf759cc79239f7b179b0ffacaa9a75d522b39400f612b44612e5e565b612b4c612eda565b4630604051602001612b629594939291906146f8565b60405160208183030381529060405280519060200120905090565b60007f5ab42ced628888259c08ac98db1eb0cf702fc1501344311d8b100cd1bfe4bb00905090565b60006040517f190100000000000000000000000000000000000000000000000000000000000081528360028201528260228201526042812091505092915050565b60008060007f7fffffffffffffffffffffffffffffff5d576e7357a4501ddfe92f46681b20a08460001c1115612c26576000600385925092509250612cd0565b600060018888888860405160008152602001604052604051612c4b949392919061474b565b6020604051602081039080840390855afa158015612c6d573d6000803e3d6000fd5b505050602060405103519050600073ffffffffffffffffffffffffffffffffffffffff168173ffffffffffffffffffffffffffffffffffffffff1603612cc157600060016000801b93509350935050612cd0565b8060008060001b935093509350505b9450945094915050565b60006003811115612cee57612ced614790565b5b826003811115612d0157612d00614790565b5b0315612e3a5760016003811115612d1b57612d1a614790565b5b826003811115612d2e57612d2d614790565b5b03612d65576040517ff645eedf00000000000000000000000000000000000000000000000000000000815260040160405180910390fd5b60026003811115612d7957612d78614790565b5b826003811115612d8c57612d8b614790565b5b03612dd1578060001c6040517ffce698f7000000000000000000000000000000000000000000000000000000008152600401612dc89190613428565b60405180910390fd5b600380811115612de457612de3614790565b5b826003811115612df757612df6614790565b5b03612e3957806040517fd78bce0c000000000000000000000000000000000000000000000000000000008152600401612e309190613510565b60405180910390fd5b5b5050565b6000612e48611d4a565b60000160089054906101000a900460ff16905090565b600080612e6961235b565b90506000612e75612383565b9050600081511115612e9257808051906020012092505050612ed7565b6000826000015490506000801b8114612eb057809350505050612ed7565b7fc5d2460186f7233c927e7db2dcc703c0e500b653ca82273b7bfad8045d85a47093505050505b90565b600080612ee561235b565b90506000612ef1612424565b9050600081511115612f0e57808051906020012092505050612f53565b6000826001015490506000801b8114612f2c57809350505050612f53565b7fc5d2460186f7233c927e7db2dcc703c0e500b653ca82273b7bfad8045d85a47093505050505b90565b6000604051905090565b600080fd5b600080fd5b600073ffffffffffffffffffffffffffffffffffffffff82169050919050565b6000612f9582612f6a565b9050919050565b612fa581612f8a565b8114612fb057600080fd5b50565b600081359050612fc281612f9c565b92915050565b6000819050919050565b612fdb81612fc8565b8114612fe657600080fd5b50565b600081359050612ff881612fd2565b92915050565b600080fd5b600080fd5b6000601f19601f8301169050919050565b7f4e487b7100000000000000000000000000000000000000000000000000000000600052604160045260246000fd5b61305182613008565b810181811067ffffffffffffffff821117156130705761306f613019565b5b80604052505050565b6000613083612f56565b905061308f8282613048565b919050565b600067ffffffffffffffff8211156130af576130ae613019565b5b6130b882613008565b9050602081019050919050565b82818337600083830152505050565b60006130e76130e284613094565b613079565b90508281526020810184848401111561310357613102613003565b5b61310e8482856130c5565b509392505050565b600082601f83011261312b5761312a612ffe565b5b813561313b8482602086016130d4565b91505092915050565b600067ffffffffffffffff82111561315f5761315e613019565b5b602082029050602081019050919050565b600080fd5b600061318861318384613144565b613079565b905080838252602082019050602084028301858111156131ab576131aa613170565b5b835b818110156131d457806131c08882612fe9565b8452602084019350506020810190506131ad565b5050509392505050565b600082601f8301126131f3576131f2612ffe565b5b8135613203848260208601613175565b91505092915050565b600080600080600080600060e0888a03121561322b5761322a612f60565b5b60006132398a828b01612fb3565b975050602061324a8a828b01612fe9565b965050604088013567ffffffffffffffff81111561326b5761326a612f65565b5b6132778a828b01613116565b955050606088013567ffffffffffffffff81111561329857613297612f65565b5b6132a48a828b01613116565b94505060806132b58a828b01612fe9565b93505060a06132c68a828b01612fb3565b92505060c088013567ffffffffffffffff8111156132e7576132e6612f65565b5b6132f38a828b016131de565b91505092959891949750929550565b600081519050919050565b600082825260208201905092915050565b60005b8381101561333c578082015181840152602081019050613321565b60008484015250505050565b600061335382613302565b61335d818561330d565b935061336d81856020860161331e565b61337681613008565b840191505092915050565b6000602082019050818103600083015261339b8184613348565b905092915050565b600080604083850312156133ba576133b9612f60565b5b60006133c885828601612fb3565b92505060206133d985828601612fe9565b9150509250929050565b60008115159050919050565b6133f8816133e3565b82525050565b600060208201905061341360008301846133ef565b92915050565b61342281612fc8565b82525050565b600060208201905061343d6000830184613419565b92915050565b61344c81612f8a565b82525050565b60006020820190506134676000830184613443565b92915050565b60008060006060848603121561348657613485612f60565b5b600061349486828701612fb3565b93505060206134a586828701612fb3565b92505060406134b686828701612fe9565b9150509250925092565b600060ff82169050919050565b6134d6816134c0565b82525050565b60006020820190506134f160008301846134cd565b92915050565b6000819050919050565b61350a816134f7565b82525050565b60006020820190506135256000830184613501565b92915050565b60006020828403121561354157613540612f60565b5b600061354f84828501612fe9565b91505092915050565b60006020828403121561356e5761356d612f60565b5b600061357c84828501612fb3565b91505092915050565b6000819050919050565b60006135aa6135a56135a084612f6a565b613585565b612f6a565b9050919050565b60006135bc8261358f565b9050919050565b60006135ce826135b1565b9050919050565b6135de816135c3565b82525050565b60006020820190506135f960008301846135d5565b92915050565b60007fff0000000000000000000000000000000000000000000000000000000000000082169050919050565b613634816135ff565b82525050565b600081519050919050565b600082825260208201905092915050565b6000819050602082019050919050565b61366f81612fc8565b82525050565b60006136818383613666565b60208301905092915050565b6000602082019050919050565b60006136a58261363a565b6136af8185613645565b93506136ba83613656565b8060005b838110156136eb5781516136d28882613675565b97506136dd8361368d565b9250506001810190506136be565b5085935050505092915050565b600060e08201905061370d600083018a61362b565b818103602083015261371f8189613348565b905081810360408301526137338188613348565b90506137426060830187613419565b61374f6080830186613443565b61375c60a0830185613501565b81810360c083015261376e818461369a565b905098975050505050505050565b6000806040838503121561379357613792612f60565b5b60006137a185828601612fe9565b92505060206137b285828601612fe9565b9150509250929050565b60006137c7826135b1565b9050919050565b6137d7816137bc565b82525050565b60006020820190506137f260008301846137ce565b92915050565b613801816134c0565b811461380c57600080fd5b50565b60008135905061381e816137f8565b92915050565b61382d816134f7565b811461383857600080fd5b50565b60008135905061384a81613824565b92915050565b600080600080600080600060e0888a03121561386f5761386e612f60565b5b600061387d8a828b01612fb3565b975050602061388e8a828b01612fb3565b965050604061389f8a828b01612fe9565b95505060606138b08a828b01612fe9565b94505060806138c18a828b0161380f565b93505060a06138d28a828b0161383b565b92505060c06138e38a828b0161383b565b91505092959891949750929550565b6000806040838503121561390957613908612f60565b5b600061391785828601612fb3565b925050602061392885828601612fb3565b9150509250929050565b600060c0820190506139476000830189613419565b6139546020830188613419565b6139616040830187613419565b61396e6060830186613419565b61397b6080830185613419565b61398860a08301846133ef565b979650505050505050565b7f4e487b7100000000000000000000000000000000000000000000000000000000600052601160045260246000fd5b60008160011c9050919050565b6000808291508390505b6001851115613a19578086048111156139f5576139f4613993565b5b6001851615613a045780820291505b8081029050613a12856139c2565b94506139d9565b94509492505050565b600082613a325760019050613aee565b81613a405760009050613aee565b8160018114613a565760028114613a6057613a8f565b6001915050613aee565b60ff841115613a7257613a71613993565b5b8360020a915084821115613a8957613a88613993565b5b50613aee565b5060208310610133831016604e8410600b8410161715613ac45782820a905083811115613abf57613abe613993565b5b613aee565b613ad184848460016139cf565b92509050818404811115613ae857613ae7613993565b5b81810290505b9392505050565b6000613b0082612fc8565b9150613b0b83612fc8565b9250613b387fffffffffffffffffffffffffffffffffffffffffffffffffffffffffffffffff8484613a22565b905092915050565b7f4e487b7100000000000000000000000000000000000000000000000000000000600052603260045260246000fd5b6000613b7a82612fc8565b9150613b8583612fc8565b9250828203905081811115613b9d57613b9c613993565b5b92915050565b6000613bae82612fc8565b9150613bb983612fc8565b9250828202613bc781612fc8565b91508282048414831517613bde57613bdd613993565b5b5092915050565b7f4e487b7100000000000000000000000000000000000000000000000000000000600052601260045260246000fd5b6000613c1f82612fc8565b9150613c2a83612fc8565b925082613c3a57613c39613be5565b5b828204905092915050565b7f54524144455f4255524e5f524154494f5f494e56414c49440000000000000000600082015250565b6000613c7b60188361330d565b9150613c8682613c45565b602082019050919050565b60006020820190508181036000830152613caa81613c6e565b9050919050565b7f54524144455f4645455f524154494f5f494e56414c4944000000000000000000600082015250565b6000613ce760178361330d565b9150613cf282613cb1565b602082019050919050565b60006020820190508181036000830152613d1681613cda565b9050919050565b6000819050919050565b600067ffffffffffffffff82169050919050565b6000613d56613d51613d4c84613d1d565b613585565b613d27565b9050919050565b613d6681613d3b565b82525050565b6000602082019050613d816000830184613d5d565b92915050565b7f4e487b7100000000000000000000000000000000000000000000000000000000600052602260045260246000fd5b60006002820490506001821680613dce57607f821691505b602082108103613de157613de0613d87565b5b50919050565b7f4549503731323a20556e696e697469616c697a65640000000000000000000000600082015250565b6000613e1d60158361330d565b9150613e2882613de7565b602082019050919050565b60006020820190508181036000830152613e4c81613e10565b9050919050565b6000613e5e82612fc8565b9150613e6983612fc8565b9250828201905080821115613e8157613e80613993565b5b92915050565b6000819050919050565b6000613eac613ea7613ea284613e87565b613585565b612fc8565b9050919050565b613ebc81613e91565b82525050565b600060c082019050613ed76000830189613443565b613ee46020830188613419565b613ef16040830187613eb3565b613efe6060830186613eb3565b613f0b6080830185613443565b613f1860a0830184613419565b979650505050505050565b600081519050613f3281612fd2565b92915050565b60008060408385031215613f4f57613f4e612f60565b5b6000613f5d85828601613f23565b9250506020613f6e85828601613f23565b9150509250929050565b600080600060608486031215613f9157613f90612f60565b5b6000613f9f86828701613f23565b9350506020613fb086828701613f23565b9250506040613fc186828701613f23565b9150509250925092565b600060c082019050613fe06000830189613501565b613fed6020830188613443565b613ffa6040830187613443565b6140076060830186613419565b6140146080830185613419565b61402160a0830184613419565b979650505050505050565b60006040820190506140416000830185613443565b61404e6020830184613443565b9392505050565b7f596f7520646f206e6f74206861766520616e206163746976652076657374696e60008201527f67207363686564756c652e000000000000000000000000000000000000000000602082015250565b60006140b1602b8361330d565b91506140bc82614055565b604082019050919050565b600060208201905081810360008301526140e0816140a4565b9050919050565b7f56657374696e6720686173206e6f742073746172746564207965740000000000600082015250565b600061411d601b8361330d565b9150614128826140e7565b602082019050919050565b6000602082019050818103600083015261414c81614110565b9050919050565b7f4e6f2076657374656420746f6b656e7320617661696c61626c6520746f20636c60008201527f61696d0000000000000000000000000000000000000000000000000000000000602082015250565b60006141af60238361330d565b91506141ba82614153565b604082019050919050565b600060208201905081810360008301526141de816141a2565b9050919050565b7f436c61696d206578636565647320616c6c6f636174696f6e0000000000000000600082015250565b600061421b60188361330d565b9150614226826141e5565b602082019050919050565b6000602082019050818103600083015261424a8161420e565b9050919050565b60006060820190506142666000830186613443565b6142736020830185613443565b6142806040830184613419565b949350505050565b614291816133e3565b811461429c57600080fd5b50565b6000815190506142ae81614288565b92915050565b6000602082840312156142ca576142c9612f60565b5b60006142d88482850161429f565b91505092915050565b60006040820190506142f66000830185613443565b6143036020830184613419565b9392505050565b60008151905061431981612f9c565b92915050565b60006020828403121561433557614334612f60565b5b60006143438482850161430a565b91505092915050565b600060e082019050614361600083018a613443565b61436e6020830189613443565b61437b6040830188613419565b6143886060830187613eb3565b6143956080830186613eb3565b6143a260a0830185613443565b6143af60c0830184613419565b98975050505050505050565b7f4e6f7420656e6f75676820746f6b656e7320616c6c6f636174656420666f722060008201527f76657374696e6700000000000000000000000000000000000000000000000000602082015250565b600061441760278361330d565b9150614422826143bb565b604082019050919050565b600060208201905081810360008301526144468161440a565b9050919050565b60006060820190506144626000830186613443565b61446f6020830185613419565b61447c6040830184613419565b949350505050565b60008190508160005260206000209050919050565b60006020601f8301049050919050565b600082821b905092915050565b6000600883026144e67fffffffffffffffffffffffffffffffffffffffffffffffffffffffffffffffff826144a9565b6144f086836144a9565b95508019841693508086168417925050509392505050565b600061452361451e61451984612fc8565b613585565b612fc8565b9050919050565b6000819050919050565b61453d83614508565b6145516145498261452a565b8484546144b6565b825550505050565b600090565b614566614559565b614571818484614534565b505050565b5b818110156145955761458a60008261455e565b600181019050614577565b5050565b601f8211156145da576145ab81614484565b6145b484614499565b810160208510156145c3578190505b6145d76145cf85614499565b830182614576565b50505b505050565b600082821c905092915050565b60006145fd600019846008026145df565b1980831691505092915050565b600061461683836145ec565b9150826002028217905092915050565b61462f82613302565b67ffffffffffffffff81111561464857614647613019565b5b6146528254613db6565b61465d828285614599565b600060209050601f831160018114614690576000841561467e578287015190505b614688858261460a565b8655506146f0565b601f19841661469e86614484565b60005b828110156146c6578489015182556001820191506020850194506020810190506146a1565b868310156146e357848901516146df601f8916826145ec565b8355505b6001600288020188555050505b505050505050565b600060a08201905061470d6000830188613501565b61471a6020830187613501565b6147276040830186613501565b6147346060830185613419565b6147416080830184613443565b9695505050505050565b60006080820190506147606000830187613501565b61476d60208301866134cd565b61477a6040830185613501565b6147876060830184613501565b95945050505050565b7f4e487b7100000000000000000000000000000000000000000000000000000000600052602160045260246000fdfea26469706673582212204becd02237bb8e11d0ebe0b6774855e2fe20f8ab63711c8d35931c0deb79b97e64736f6c63430008190033",
  "linkReferences": {},
  "deployedLinkReferences": {}
}